{"abi":[{"type":"function","name":"getAccumulatedFees","inputs":[],"outputs":[{"name":"","type":"uint256","internalType":"uint256"},{"name":"","type":"uint256","internalType":"uint256"}],"stateMutability":"view"},{"type":"function","name":"getFunctionSelectors","inputs":[],"outputs":[{"name":"","type":"bytes4[]","internalType":"bytes4[]"}],"stateMutability":"pure"},{"type":"function","name":"getPositions","inputs":[],"outputs":[{"name":"positions","type":"tuple[3]","internalType":"struct LiquidityPosition[3]","components":[{"name":"lowerTick","type":"int24","internalType":"int24"},{"name":"upperTick","type":"int24","internalType":"int24"},{"name":"liquidity","type":"uint128","internalType":"uint128"},{"name":"price","type":"uint256","internalType":"uint256"}]}],"stateMutability":"view"},{"type":"function","name":"getUnderlyingBalances","inputs":[{"name":"liquidityType","type":"uint8","internalType":"enum LiquidityType"}],"outputs":[{"name":"","type":"int24","internalType":"int24"},{"name":"","type":"int24","internalType":"int24"},{"name":"","type":"uint256","internalType":"uint256"},{"name":"","type":"uint256","internalType":"uint256"}],"stateMutability":"view"},{"type":"function","name":"getVaultInfo","inputs":[],"outputs":[{"name":"vaultInfo","type":"tuple","internalType":"struct VaultInfo","components":[{"name":"liquidityRatio","type":"uint256","internalType":"uint256"},{"name":"circulatingSupply","type":"uint256","internalType":"uint256"},{"name":"spotPriceX96","type":"uint256","internalType":"uint256"},{"name":"anchorCapacity","type":"uint256","internalType":"uint256"},{"name":"floorCapacity","type":"uint256","internalType":"uint256"},{"name":"token0","type":"address","internalType":"address"},{"name":"token1","type":"address","internalType":"address"},{"name":"newFloor","type":"uint256","internalType":"uint256"}]}],"stateMutability":"view"},{"type":"function","name":"initialize","inputs":[{"name":"_pool","type":"address","internalType":"address"},{"name":"_modelHelper","type":"address","internalType":"address"}],"outputs":[],"stateMutability":"nonpayable"},{"type":"function","name":"initializeLiquidity","inputs":[{"name":"positions","type":"tuple[3]","internalType":"struct LiquidityPosition[3]","components":[{"name":"lowerTick","type":"int24","internalType":"int24"},{"name":"upperTick","type":"int24","internalType":"int24"},{"name":"liquidity","type":"uint128","internalType":"uint128"},{"name":"price","type":"uint256","internalType":"uint256"}]}],"outputs":[],"stateMutability":"nonpayable"},{"type":"function","name":"pool","inputs":[],"outputs":[{"name":"","type":"address","internalType":"contract IUniswapV3Pool"}],"stateMutability":"view"},{"type":"function","name":"setFees","inputs":[{"name":"_feesAccumulatedToken0","type":"uint256","internalType":"uint256"},{"name":"_feesAccumulatedToken1","type":"uint256","internalType":"uint256"}],"outputs":[],"stateMutability":"nonpayable"},{"type":"function","name":"setParameters","inputs":[{"name":"_deployerContract","type":"address","internalType":"address"}],"outputs":[],"stateMutability":"nonpayable"},{"type":"function","name":"shift","inputs":[],"outputs":[],"stateMutability":"nonpayable"},{"type":"function","name":"slide","inputs":[],"outputs":[],"stateMutability":"nonpayable"},{"type":"function","name":"uniswapV3MintCallback","inputs":[{"name":"amount0Owed","type":"uint256","internalType":"uint256"},{"name":"amount1Owed","type":"uint256","internalType":"uint256"},{"name":"data","type":"bytes","internalType":"bytes"}],"outputs":[],"stateMutability":"nonpayable"},{"type":"function","name":"updatePositions","inputs":[{"name":"_positions","type":"tuple[3]","internalType":"struct LiquidityPosition[3]","components":[{"name":"lowerTick","type":"int24","internalType":"int24"},{"name":"upperTick","type":"int24","internalType":"int24"},{"name":"liquidity","type":"uint128","internalType":"uint128"},{"name":"price","type":"uint256","internalType":"uint256"}]}],"outputs":[],"stateMutability":"nonpayable"},{"type":"event","name":"FloorUpdated","inputs":[{"name":"floorPrice","type":"uint256","indexed":false,"internalType":"uint256"},{"name":"floorCapacity","type":"uint256","indexed":false,"internalType":"uint256"}],"anonymous":false},{"type":"error","name":"AboveThreshold","inputs":[]},{"type":"error","name":"AlreadyInitialized","inputs":[]},{"type":"error","name":"BelowThreshold","inputs":[]},{"type":"error","name":"InvalidCaller","inputs":[]}],"bytecode":{"object":"0x608060405234801561001057600080fd5b5061493f806100206000396000f3fe608060405234801561001057600080fd5b50600436106100ea5760003560e01c80637f98aa711161008c578063b22fdb4011610066578063b22fdb4014610214578063d348799714610227578063f4a1a46d1461023a578063fd896f9d1461027557600080fd5b80637f98aa711461018057806380275860146101f7578063982f3bfd1461020c57600080fd5b806341fc48e3116100c857806341fc48e31461012c578063485cc9551461013f578063490377a7146101525780635df45a371461016557600080fd5b80630b78f9c0146100ef57806312fc41ca1461010457806316f0115b1461010c575b600080fd5b6101026100fd366004613caa565b61028a565b005b610102610307565b600a546040516001600160a01b0390911681526020015b60405180910390f35b61010261013a366004613d52565b610424565b61010261014d366004613e1d565b6104ef565b610102610160366004613e56565b610631565b600b54600c5460408051928352602083019190915201610123565b610188610676565b6040516101239190600061010082019050825182526020830151602083015260408301516040830152606083015160608301526080830151608083015260a083015160018060a01b0380821660a08501528060c08601511660c0850152505060e083015160e083015292915050565b6101ff610760565b6040516101239190613edc565b610102610826565b610102610222366004613d52565b610942565b610102610235366004613eeb565b610b2a565b61024d610248366004613f6b565b610d5a565b60408051600295860b81529390940b6020840152928201526060810191909152608001610123565b61027d610dec565b6040516101239190613f8c565b3330146102cf5760405162461bcd60e51b815260206004820152600e60248201526d34b73b30b634b21031b0b63632b960911b60448201526064015b60405180910390fd5b816000600b0160008282546102e49190613ff0565b9091555050600c80548291906000906102fe908490613ff0565b90915550505050565b600d5460ff166103295760405162461bcd60e51b81526004016102c690614003565b6040805160e081018252600054600281810b60608085019182526301000000808504840b6080808801919091526001600160801b03600160301b96879004811660a089015260015460c089015293875287518082018952855480870b8252838104870b602083810191909152908890048616828b0152600354828601528089019190915288518083018a5260045480880b825293840490960b868201529590910490921683870152600554838201528486019290925284519081018552600a546001600160a01b0390811682523093820193909352600854831694810194909452600954909116908301529061041f90826113b4565b505050565b600d5460ff16156104475760405162dc149f60e41b815260040160405180910390fd5b6008546001600160a01b03163314610472576040516348f5c3ed60e01b815260040160405180910390fd5b8051604001516001600160801b03161580159061049f57506020810151604001516001600160801b031615155b80156104ba575060408082015101516001600160801b031615155b6104d65760405162461bcd60e51b81526004016102c690614042565b600d805460ff191660011790556104ec816117da565b50565b600a80546001600160a01b038085166001600160a01b03199283168117909355600980549185169190921617905560408051630dfe168160e01b81529051630dfe1681916004808201926020929091908290030181865afa158015610558573d6000803e3d6000fd5b505050506040513d601f19601f8201168201806040525081019061057c919061407c565b600680546001600160a01b0319166001600160a01b03928316179055600a546040805163d21220a760e01b81529051919092169163d21220a79160048083019260209291908290030181865afa1580156105da573d6000803e3d6000fd5b505050506040513d601f19601f820116820180604052508101906105fe919061407c565b600780546001600160a01b0319166001600160a01b03929092169190911790555050600d805460ff191690556000600e55565b600d5460ff16156106545760405162dc149f60e41b815260040160405180910390fd5b600880546001600160a01b0319166001600160a01b0392909216919091179055565b6106d0604051806101000160405280600081526020016000815260200160008152602001600081526020016000815260200160006001600160a01b0316815260200160006001600160a01b03168152602001600081525090565b600954600a54604051638a3fecc960e01b81526001600160a01b0391821660048201523060248201526006548216604482015260075482166064820152911690638a3fecc99060840161010060405180830381865afa158015610737573d6000803e3d6000fd5b505050506040513d601f19601f8201168201806040525081019061075b9190614099565b905090565b610768613c64565b506040805160e081018252600054600281810b60608085019182526301000000808504840b6080808801919091526001600160801b03600160301b96879004811660a089015260015460c089015293875287518082018952855480870b8252838104870b602083810191909152908890048616828b015260035482860152808901919091528851918201895260045480870b835292830490950b94810194909452939093041681850152600554918101919091529181019190915290565b600d5460ff166108485760405162461bcd60e51b81526004016102c690614003565b6040805160e081018252600054600281810b60608085019182526301000000808504840b6080808801919091526001600160801b03600160301b96879004811660a089015260015460c089015293875287518082018952855480870b8252838104870b602083810191909152908890048616828b0152600354828601528089019190915288518083018a5260045480880b825293840490960b868201529590910490921683870152600554838201528486019290925284519081018552600a546001600160a01b0390811682523093820193909352600854831694810194909452600954909116908301529061093e90826117fc565b5050565b3330146109825760405162461bcd60e51b815260206004820152600e60248201526d34b73b30b634b21031b0b63632b960911b60448201526064016102c6565b600d5460ff166109a45760405162461bcd60e51b81526004016102c690614003565b8051604001516001600160801b0316158015906109d157506020810151604001516001600160801b031615155b80156109ec575060408082015101516001600160801b031615155b610a4b5760405162461bcd60e51b815260206004820152602a60248201527f757064617465506f736974696f6e733a206e6f206c697175696469747920696e60448201526920706f736974696f6e7360b01b60648201526084016102c6565b805180516000805460208481015160408087015162ffffff96871665ffffffffffff1995861617630100000093881684021775ffffffffffffffffffffffffffffffff00000000000019908116600160301b6001600160801b03938416810291909117909755606098890151600155848a01518051600280548389015184880151938d16918b1691909117908c1688021784169185168a02919091179055890151600355988201518051600480549683015194830151918a16969097169590951792909716909202179096169516909102939093179092550151600555565b600a546001600160a01b03163314610b695760405162461bcd60e51b8152602060048201526002602482015261636360f01b60448201526064016102c6565b6006546040516370a0823160e01b81523060048201526000916001600160a01b0316906370a0823190602401602060405180830381865afa158015610bb2573d6000803e3d6000fd5b505050506040513d601f19601f82011682018060405250810190610bd6919061413c565b6007546040516370a0823160e01b81523060048201529192506000916001600160a01b03909116906370a0823190602401602060405180830381865afa158015610c24573d6000803e3d6000fd5b505050506040513d601f19601f82011682018060405250810190610c48919061413c565b9050858210610cce578515610cce5760065460405163a9059cbb60e01b8152336004820152602481018890526001600160a01b039091169063a9059cbb906044016020604051808303816000875af1158015610ca8573d6000803e3d6000fd5b505050506040513d601f19601f82011682018060405250810190610ccc9190614165565b505b848110610d52578415610d525760075460405163a9059cbb60e01b8152336004820152602481018790526001600160a01b039091169063a9059cbb906044016020604051808303816000875af1158015610d2c573d6000803e3d6000fd5b505050506040513d601f19601f82011682018060405250810190610d509190614165565b505b505050505050565b600954600a546040516317886cbb60e11b81526000928392839283926001600160a01b0390811692632f10d97692610d9c929091169030908a906004016141b8565b608060405180830381865afa158015610db9573d6000803e3d6000fd5b505050506040513d601f19601f82011682018060405250810190610ddd91906141dd565b93509350935093509193509193565b60408051600d8082526101c0820190925260609160009190602082016101a080368337505060408051808201909152600e81526d6765745661756c74496e666f282960901b6020909101525080519091507f7f98aa714a3525a7c26e3db0020339a51582b26f1979450e3cd048c68a8cda4b908290600090610e7057610e7061402c565b6001600160e01b0319909216602092830291909101820152604080518082019091526006815265706f6f6c282960d01b91015280517f16f0115b5901d3f6295e520505af05475e18f6f1e134f347475c881a6302260d9082906001908110610eda57610eda61402c565b6001600160e01b031990921660209283029190910182015260408051808201909152601b81527f696e697469616c697a6528616464726573732c6164647265737329000000000091015280517f485cc955cd05f29985ce37d87ac35dcf2fdbc60b9106f66a532e31a2f1d5743b9082906002908110610f5b57610f5b61402c565b6001600160e01b0319909216602092830291909101820152604080518082019091526016815275736574506172616d657465727328616464726573732960501b91015280517f490377a7562cb9b43eb9386a1fb91ad29bebda4735501defa84e717fd8033b849082906003908110610fd557610fd561402c565b60200260200101906001600160e01b03191690816001600160e01b0319168152505060405180606001604052806035815260200161487860359139805190602001208160048151811061102a5761102a61402c565b6001600160e01b031990921660209283029190910182015260408051808201909152600e81526d676574506f736974696f6e73282960901b91015280517f80275860e94ae2352a6f96e7331d60fec5acb8be3449303acc2955074b0ae891908290600590811061109c5761109c61402c565b6001600160e01b03199092166020928302919091018201526040805180820190915260078152667368696674282960c81b91015280517f12fc41ca56ca3aa7ff9259abf3e0211600a967707c7f2c9ce1cf0ad9baf5f10690829060069081106111075761110761402c565b6001600160e01b031990921660209283029190910182015260408051808201909152600780825266736c696465282960c81b919092015281517f982f3bfd4ba393dca0e196f8741ba8d559ed4cac6b306e3d133a86b025b22b9c91839181106111725761117261402c565b60200260200101906001600160e01b03191690816001600160e01b031916815250506040518060600160405280602c81526020016148de602c913980519060200120816008815181106111c7576111c761402c565b6001600160e01b031990921660209283029190910182015260408051808201909152601c81527f676574556e6465726c79696e6742616c616e6365732875696e7438290000000091015280517ff4a1a46d9751fea7e3c0d062d30718ab082c893574174cf12af66e299ce647f590829060099081106112485761124861402c565b60200260200101906001600160e01b03191690816001600160e01b031916815250506040518060600160405280603181526020016148ad603191398051906020012081600a8151811061129d5761129d61402c565b6001600160e01b031990921660209283029190910182015260408051808201909152601881527f736574466565732875696e743235362c75696e7432353629000000000000000091015280517f0b78f9c0c079f44f7aa9e8a073994e94ea5f1ec98f3c0123d3c8350dcfca20c2908290600b90811061131e5761131e61402c565b6001600160e01b0319909216602092830291909101820152604080518082019091526014815273676574416363756d756c6174656446656573282960601b91015280517f5df45a3726e2430fc7db93443f7d212a24cee57c63dfca1e6d9d339521e8fb6c908290600c9081106113965761139661402c565b6001600160e01b031990921660209283029190910190910152919050565b60006113be613c64565b83518360005b600381101561155c5760008282600381106113e1576113e161402c565b60200201515160020b1380611413575060008282600381106114055761140561402c565b60200201516020015160020b135b61142f5760405162461bcd60e51b81526004016102c690614042565b6000308383600381106114445761144461402c565b60200201515184846003811061145c5761145c61402c565b60200201516020015160405160200161147793929190614225565b60408051601f1981840301815290829052805160209091012063514ea4bf60e01b82526004820181905291506000906001600160a01b0386169063514ea4bf9060240160a060405180830381865afa1580156114d7573d6000803e3d6000fd5b505050506040513d601f19601f820116820180604052508101906114fb9190614253565b5050505090506000816001600160801b0316116115525760405162461bcd60e51b81526020600482015260156024820152746f6e6c794e6f74456d707479506f736974696f6e7360581b60448201526064016102c6565b50506001016113c4565b506060860151865160208801516040516323c9deeb60e01b81526001600160a01b03928316600482015290821660248201529116906323c9deeb90604401602060405180830381865afa1580156115b7573d6000803e3d6000fd5b505050506040513d601f19601f820116820180604052508101906115db919061413c565b935060008060006115eb89611efe565b925092509250670d99a8cec7e2000087116117b4576000611615886116108486613ff0565b612093565b61161f8385613ff0565b61162991906142b5565b90506103e86116398460026142c8565b61164391906142f5565b81106117ae5783156117ae5760608a01518a516040516317886cbb60e11b81526000926001600160a01b031691632f10d976916116879190309086906004016141b8565b608060405180830381865afa1580156116a4573d6000803e3d6000fd5b505050506040513d601f19601f820116820180604052508101906116c891906141dd565b935050505060008b606001516001600160a01b031663d72dd85c8d600001518e602001518e6001600381106116ff576116ff61402c565b60200201516040518463ffffffff1660e01b815260040161172293929190614309565b602060405180830381865afa15801561173f573d6000803e3d6000fd5b505050506040513d601f19601f82011682018060405250810190611763919061413c565b90506117a16040518060e001604052808e8152602001858152602001888152602001838152602001848152602001878152602001868152508c6120be565b98505050505050506117d1565b506117cd565b60405163e40aeaf560e01b815260040160405180910390fd5b5050505b50509250929050565b600d5460ff16610a4b5760405162461bcd60e51b81526004016102c690614003565b611804613c64565b82518260005b60038110156119a25760008282600381106118275761182761402c565b60200201515160020b13806118595750600082826003811061184b5761184b61402c565b60200201516020015160020b135b6118755760405162461bcd60e51b81526004016102c690614042565b60003083836003811061188a5761188a61402c565b6020020151518484600381106118a2576118a261402c565b6020020151602001516040516020016118bd93929190614225565b60408051601f1981840301815290829052805160209091012063514ea4bf60e01b82526004820181905291506000906001600160a01b0386169063514ea4bf9060240160a060405180830381865afa15801561191d573d6000803e3d6000fd5b505050506040513d601f19601f820116820180604052508101906119419190614253565b5050505090506000816001600160801b0316116119985760405162461bcd60e51b81526020600482015260156024820152746f6e6c794e6f74456d707479506f736974696f6e7360581b60448201526064016102c6565b505060010161180a565b50600085600001516001600160a01b0316633850c7bd6040518163ffffffff1660e01b815260040160e060405180830381865afa1580156119e7573d6000803e3d6000fd5b505050506040513d601f19601f82011682018060405250810190611a0b9190614340565b505050506060890151895160208b01516040516323c9deeb60e01b81526001600160a01b0392831660048201529082166024820152949550600094911692506323c9deeb9150604401602060405180830381865afa158015611a71573d6000803e3d6000fd5b505050506040513d601f19601f82011682018060405250810190611a95919061413c565b90506000611aa288611efe565b50915050670ff59ee833b300008210611edb57865160208901518951600092611ad692909184611ad189612260565b61259a565b90506000611afa89600160200201518b602001518c600001516000611ad18a612260565b60208b0151604051622de3e760e61b815260006004820152602481018590529192506001600160a01b031690630b78f9c090604401600060405180830381600087803b158015611b4957600080fd5b505af1158015611b5d573d6000803e3d6000fd5b50505060208b0151604051622de3e760e61b815260006004820152602481018490526001600160a01b039091169150630b78f9c090604401600060405180830381600087803b158015611baf57600080fd5b505af1158015611bc3573d6000803e3d6000fd5b50508b51611bea92509050308b60016020020151518c60015b6020020151602001516129d2565b8951611c0290308b60026020020151518c6002611bdc565b895160408b01518a5160200151611caf92919073__$02d520d13cf184fb066b4c9912635b5d1d$__6364ae74a9603c611c3a8c612260565b611c4491906143d3565b6040516001600160e01b031960e084901b16815260029190910b6004820152602401602060405180830381865af4158015611c83573d6000803e3d6000fd5b505050506040513d601f19601f82011682018060405250810190611ca791906143f8565b876001612adf565b6020890152895160408b0151611e64919073__$02d520d13cf184fb066b4c9912635b5d1d$__6364ae74a98163e70f7bae611ce98c612260565b6040516001600160e01b031960e084901b16815260029190910b600482015260966024820152604401602060405180830381865af4158015611d2f573d6000803e3d6000fd5b505050506040513d601f19601f82011682018060405250810190611d5391906143f8565b6040516001600160e01b031960e084901b16815260029190910b6004820152602401602060405180830381865af4158015611d92573d6000803e3d6000fd5b505050506040513d601f19601f82011682018060405250810190611db691906143f8565b73__$02d520d13cf184fb066b4c9912635b5d1d$__6364ae74a96002611ddb8c612260565b611de59190614415565b611dee8c612260565b611df891906143d3565b6040516001600160e01b031960e084901b16815260029190910b6004820152602401602060405180830381865af4158015611e37573d6000803e3d6000fd5b505050506040513d601f19601f82011682018060405250810190611e5b91906143f8565b60006002612adf565b6040808a01919091528951895260208b015190516302c8bf6d60e61b81526001600160a01b039091169063b22fdb4090611ea2908b90600401613edc565b600060405180830381600087803b158015611ebc57600080fd5b505af1158015611ed0573d6000803e3d6000fd5b505050505050611ef3565b604051625713a160e91b815260040160405180910390fd5b505050505092915050565b60008060008084606001516001600160a01b0316632f10d97686600001513060016040518463ffffffff1660e01b8152600401611f3d939291906141b8565b608060405180830381865afa158015611f5a573d6000803e3d6000fd5b505050506040513d601f19601f82011682018060405250810190611f7e91906141dd565b606089015189516040516317886cbb60e11b8152929650600095506001600160a01b039091169350632f10d9769250611fbe9130906002906004016141b8565b608060405180830381865afa158015611fdb573d6000803e3d6000fd5b505050506040513d601f19601f82011682018060405250810190611fff91906141dd565b60608a01518a5160208c015160405163526ed0d160e11b81526001600160a01b03928316600482015290821660248201529296506000955016925063a4dda1a29150604401602060405180830381865afa158015612061573d6000803e3d6000fd5b505050506040513d601f19601f82011682018060405250810190612085919061413c565b979296509094509092505050565b60006120a16012600a614533565b6120ab83856142c8565b6120b591906142f5565b90505b92915050565b6120c6613c64565b8251606080820151604080840151935160208801516080890151838a0151958a0151935163ca9357b360e01b815294969592946000946001600160a01b0388169463ca9357b39461212294899491939092918e9060040161453f565b602060405180830381865afa15801561213f573d6000803e3d6000fd5b505050506040513d601f19601f82011682018060405250810190612163919061413c565b90506121f06040518061012001604052808960000151600001516001600160a01b031681526020018960000151604001516001600160a01b03168152602001896020015181526020018381526020018960000151606001516001600160a01b03168152602001896080015181526020018960a0015181526020018960c00151815260200188815250612ee5565b8751602001516040516302c8bf6d60e61b81529196506001600160a01b03169063b22fdb4090612224908890600401613edc565b600060405180830381600087803b15801561223e57600080fd5b505af1158015612252573d6000803e3d6000fd5b505050505050505092915050565b60006401000276a36001600160a01b0383161080159061229c575073fffd8963efd1fc6a506488495d951d5263988d266001600160a01b038316105b6122cc5760405162461bcd60e51b81526020600482015260016024820152602960f91b60448201526064016102c6565b640100000000600160c01b03602083901b166001600160801b03811160071b81811c67ffffffffffffffff811160061b90811c63ffffffff811160051b90811c61ffff811160041b90811c60ff8111600390811b91821c600f811160021b90811c918211600190811b92831c979088119617909417909217179091171717608081106123675761235d607f826142b5565b83901c9150612378565b61237281607f6142b5565b83901b91505b60006040612387608084614584565b901b9050828302607f1c92508260801c80603f1b8217915083811c935050828302607f1c92508260801c80603e1b8217915083811c935050828302607f1c92508260801c80603d1b8217915083811c935050828302607f1c92508260801c80603c1b8217915083811c935050828302607f1c92508260801c80603b1b8217915083811c935050828302607f1c92508260801c80603a1b8217915083811c935050828302607f1c92508260801c8060391b8217915083811c935050828302607f1c92508260801c8060381b8217915083811c935050828302607f1c92508260801c8060371b8217915083811c935050828302607f1c92508260801c8060361b8217915083811c935050828302607f1c92508260801c8060351b8217915083811c935050828302607f1c92508260801c8060341b8217915083811c935050828302607f1c92508260801c8060331b8217915083811c935050828302607f1c92508260801c8060321b8217915050600081693627a301d71055774c8561250a91906145ab565b90506000608061252a6f028f6481ab7f045a5af012a19d003aaa84614584565b901d90506000608061254c846fdb2df09e81959a81455e260799a0632f6145db565b901d90508060020b8260020b1461258b57886001600160a01b031661257082613659565b6001600160a01b03161115612585578161258d565b8061258d565b815b9998505050505050505050565b6000806000806000806000896001600160a01b031663514ea4bf8c8e600001518f602001516040516020016125d193929190614225565b604051602081830303815290604052805190602001206040518263ffffffff1660e01b815260040161260591815260200190565b60a060405180830381865afa158015612622573d6000803e3d6000fd5b505050506040513d601f19601f820116820180604052508101906126469190614253565b505092509250925088156127d657896001600160a01b031663f30583996040518163ffffffff1660e01b8152600401602060405180830381865afa158015612692573d6000803e3d6000fd5b505050506040513d601f19601f820116820180604052508101906126b6919061413c565b8c5160405163f30dba9360e01b815260029190910b60048201529094506001600160a01b038b169063f30dba939060240161010060405180830381865afa158015612705573d6000803e3d6000fd5b505050506040513d601f19601f820116820180604052508101906127299190614603565b90919293949596509091929394955090919293509091925090915090505080965050896001600160a01b031663f30dba938d602001516040518263ffffffff1660e01b8152600401612784919060029190910b815260200190565b61010060405180830381865afa1580156127a2573d6000803e3d6000fd5b505050506040513d601f19601f820116820180604052508101906127c69190614603565b50939a5061295495505050505050565b896001600160a01b031663461413196040518163ffffffff1660e01b8152600401602060405180830381865afa158015612814573d6000803e3d6000fd5b505050506040513d601f19601f82011682018060405250810190612838919061413c565b8c5160405163f30dba9360e01b815260029190910b60048201529094506001600160a01b038b169063f30dba939060240161010060405180830381865afa158015612887573d6000803e3d6000fd5b505050506040513d601f19601f820116820180604052508101906128ab9190614603565b9091929394959650909192939495509091929394509091925090915090505080965050896001600160a01b031663f30dba938d602001516040518263ffffffff1660e01b8152600401612907919060029190910b815260200190565b61010060405180830381865afa158015612925573d6000803e3d6000fd5b505050506040513d601f19601f820116820180604052508101906129499190614603565b50929a505050505050505b60008c6000015160020b8960020b1261296e575085612973565b508584035b60008d6020015160020b8a60020b121561298e575085612993565b508585035b8186038190036129bf6001600160801b0387168d6129b157856129b3565b865b8303600160801b613a79565b9f9e505050505050505050505050505050565b60003083836040516020016129e993929190614225565b60408051601f1981840301815290829052805160209091012063514ea4bf60e01b82526004820181905291506000906001600160a01b0387169063514ea4bf9060240160a060405180830381865afa158015612a49573d6000803e3d6000fd5b505050506040513d601f19601f82011682018060405250810190612a6d9190614253565b5050505090506000816001600160801b03161115612a9757612a928686868685613b2d565b610d52565b60405162461bcd60e51b815260206004820152601760248201527f636f6c6c6563743a206c6971756964697479206973203000000000000000000060448201526064016102c6565b6040805160808101825260008082526020820181905291810182905260608101919091528460020b8460020b13612b485760405162461bcd60e51b815260206004820152600d60248201526c696e76616c6964207469636b7360981b60448201526064016102c6565b6000876001600160a01b0316630dfe16816040518163ffffffff1660e01b8152600401602060405180830381865afa158015612b88573d6000803e3d6000fd5b505050506040513d601f19601f82011682018060405250810190612bac919061407c565b6040516370a0823160e01b81523060048201526001600160a01b0391909116906370a0823190602401602060405180830381865afa158015612bf2573d6000803e3d6000fd5b505050506040513d601f19601f82011682018060405250810190612c16919061413c565b905060006002846002811115612c2e57612c2e614180565b14612c395781612c5a565b6064612c468360196142c8565b612c5091906142f5565b612c5a90836142b5565b9050886001600160a01b0316630dfe16816040518163ffffffff1660e01b8152600401602060405180830381865afa158015612c9a573d6000803e3d6000fd5b505050506040513d601f19601f82011682018060405250810190612cbe919061407c565b60405163095ea7b360e01b81526001600160a01b038a8116600483015260248201859052919091169063095ea7b3906044016020604051808303816000875af1158015612d0f573d6000803e3d6000fd5b505050506040513d601f19601f82011682018060405250810190612d339190614165565b50886001600160a01b031663d21220a76040518163ffffffff1660e01b8152600401602060405180830381865afa158015612d72573d6000803e3d6000fd5b505050506040513d601f19601f82011682018060405250810190612d96919061407c565b6001600160a01b031663095ea7b38960008811612db4576001612db6565b875b6040516001600160e01b031960e085901b1681526001600160a01b03909216600483015260248201526044016020604051808303816000875af1158015612e01573d6000803e3d6000fd5b505050506040513d601f19601f82011682018060405250810190612e259190614165565b50876001600160a01b031663ae9b82778a308a8a8960405180604001604052808a815260200160016002811115612e5e57612e5e614180565b8d6002811115612e7057612e70614180565b14612e7c576001612e7e565b8d5b8152506040518763ffffffff1660e01b8152600401612ea2969594939291906146b1565b6080604051808303816000875af1158015612ec1573d6000803e3d6000fd5b505050506040513d601f19601f8201168201806040525081019061258d9190614704565b612eed613c64565b600082600001516001600160a01b0316633850c7bd6040518163ffffffff1660e01b815260040160e060405180830381865afa158015612f31573d6000803e3d6000fd5b505050506040513d601f19601f82011682018060405250810190612f559190614340565b50505050505090506000836101000151600060038110612f7757612f7761402c565b6020020151604001516001600160801b031611156135fd57610100830151518351600091612fab91309084611ad187612260565b90506000612fde856101000151600160038110612fca57612fca61402c565b6020020151865130906000611ad188612260565b604051622de3e760e61b815260006004820152602481018490529091503090630b78f9c090604401600060405180830381600087803b15801561302057600080fd5b505af1158015613034573d6000803e3d6000fd5b5050604051622de3e760e61b81526000600482015260248101849052309250630b78f9c09150604401600060405180830381600087803b15801561307757600080fd5b505af115801561308b573d6000803e3d6000fd5b505086516101008801518051516130aa94509192503091906000611bdc565b84516101008601516040810151516130c792913091906002611bdc565b84516101008601516020810151516130e492913091906001611bdc565b60a085015160408601516130f89082613ff0565b11156131fc5784600001516001600160a01b031663d21220a76040518163ffffffff1660e01b8152600401602060405180830381865afa158015613140573d6000803e3d6000fd5b505050506040513d601f19601f82011682018060405250810190613164919061407c565b6001600160a01b031663a9059cbb866020015187604001518860a0015161318b9190613ff0565b6040516001600160e01b031960e085901b1681526001600160a01b03909216600483015260248201526044016020604051808303816000875af11580156131d6573d6000803e3d6000fd5b505050506040513d601f19601f820116820180604052508101906131fa9190614165565b505b84602001516001600160a01b03166360d9859786600001513073__$00856c2daf1848075e4d6b3791a97a7365$__63b7df07b36132588b610100015160006003811061324a5761324a61402c565b602002015160200151613c59565b6040516001600160e01b031960e084901b1681526001600160a01b03909116600482015260126024820152604401602060405180830381865af41580156132a3573d6000803e3d6000fd5b505050506040513d601f19601f820116820180604052508101906132c7919061413c565b89606001518a604001518b60a001516132e09190613ff0565b60a08c01516101008d0151516040516001600160e01b031960e08a901b1681526133139796959493929190600401614764565b6080604051808303816000875af1158015613332573d6000803e3d6000fd5b505050506040513d601f19601f820116820180604052508101906133569190614704565b8085528551602080880151920151613419929073__$02d520d13cf184fb066b4c9912635b5d1d$__6364ae74a961338c89612260565b6040516001600160e01b031960e084901b16815260029190910b6004820152602401602060405180830381865af41580156133cb573d6000803e3d6000fd5b505050506040513d601f19601f820116820180604052508101906133ef91906143f8565b89604001518a60e001518b60c001516134089190613ff0565b61341291906142b5565b6001612adf565b60208581018290528651878201519290910151604051637387bdd760e11b815260029190910b600482015260966024820152613549929073__$02d520d13cf184fb066b4c9912635b5d1d$__906364ae74a990829063e70f7bae90604401602060405180830381865af4158015613494573d6000803e3d6000fd5b505050506040513d601f19601f820116820180604052508101906134b891906143f8565b6040516001600160e01b031960e084901b16815260029190910b6004820152602401602060405180830381865af41580156134f7573d6000803e3d6000fd5b505050506040513d601f19601f8201168201806040525081019061351b91906143f8565b73__$02d520d13cf184fb066b4c9912635b5d1d$__6364ae74a961353e89612260565b611df89060036147b2565b604080860191909152845101516001600160801b03161580159061357d57506020840151604001516001600160801b031615155b8015613598575060408085015101516001600160801b031615155b6135f65760405162461bcd60e51b815260206004820152602960248201527f7368696674506f736974696f6e733a206e6f206c697175696469747920696e20604482015268706f736974696f6e7360b81b60648201526084016102c6565b5050613653565b60405162461bcd60e51b815260206004820152602560248201527f7368696674506f736974696f6e733a206e6f206c697175696469747920696e20604482015264233637b7b960d91b60648201526084016102c6565b50919050565b60008060008360020b12613670578260020b61367d565b8260020b61367d906147d2565b905061368c620d89e7196147ee565b60020b8111156136c25760405162461bcd60e51b81526020600482015260016024820152601560fa1b60448201526064016102c6565b6000816001166000036136d957600160801b6136eb565b6ffffcb933bd6fad37aa2d162d1a5940015b70ffffffffffffffffffffffffffffffffff169050600282161561372a576080613725826ffff97272373d413259a46990580e213a6142c8565b901c90505b600482161561375457608061374f826ffff2e50f5f656932ef12357cf3c7fdcc6142c8565b901c90505b600882161561377e576080613779826fffe5caca7e10e4e61c3624eaa0941cd06142c8565b901c90505b60108216156137a85760806137a3826fffcb9843d60f6159c9db58835c9266446142c8565b901c90505b60208216156137d25760806137cd826fff973b41fa98c081472e6896dfb254c06142c8565b901c90505b60408216156137fc5760806137f7826fff2ea16466c96a3843ec78b326b528616142c8565b901c90505b6080821615613826576080613821826ffe5dee046a99a2a811c461f1969c30536142c8565b901c90505b61010082161561385157608061384c826ffcbe86c7900a88aedcffc83b479aa3a46142c8565b901c90505b61020082161561387c576080613877826ff987a7253ac413176f2b074cf7815e546142c8565b901c90505b6104008216156138a75760806138a2826ff3392b0822b70005940c7a398e4b70f36142c8565b901c90505b6108008216156138d25760806138cd826fe7159475a2c29b7443b29c7fa6e889d96142c8565b901c90505b6110008216156138fd5760806138f8826fd097f3bdfd2022b8845ad8f792aa58256142c8565b901c90505b612000821615613928576080613923826fa9f746462d870fdf8a65dc1f90e061e56142c8565b901c90505b61400082161561395357608061394e826f70d869a156d2a1b890bb3df62baf32f76142c8565b901c90505b61800082161561397e576080613979826f31be135f97d08fd981231505542fcfa66142c8565b901c90505b620100008216156139aa5760806139a5826f09aa508b5b7a84e1c677de54f3e99bc96142c8565b901c90505b620200008216156139d55760806139d0826e5d6af8dedb81196699c329225ee6046142c8565b901c90505b620400008216156139ff5760806139fa826d2216e584f5fa1ea926041bedfe986142c8565b901c90505b62080000821615613a27576080613a22826b048a170391f7dc42444e8fa26142c8565b901c90505b60008460020b1315613a4257613a3f816000196142f5565b90505b613a5164010000000082614810565b15613a5d576001613a60565b60005b613a719060ff16602083901c613ff0565b949350505050565b6000808060001985870985870292508281108382030391505080600003613ab25760008411613aa757600080fd5b508290049050613b26565b808411613abe57600080fd5b600084868809851960019081018716968790049682860381900495909211909303600082900391909104909201919091029190911760038402600290811880860282030280860282030280860282030280860282030280860282030280860290910302029150505b9392505050565b60405163a34123a760e01b8152600284810b600483015283900b60248201526001600160801b038216604482015260009081906001600160a01b0388169063a34123a79060640160408051808303816000875af1158015613b92573d6000803e3d6000fd5b505050506040513d601f19601f82011682018060405250810190613bb69190614824565b6040516309e3d67b60e31b81526001600160a01b038981166004830152600289810b602484015288900b60448301526001600160801b0360648301819052608483015292945090925090881690634f1eb3d89060a40160408051808303816000875af1158015613c2a573d6000803e3d6000fd5b505050506040513d601f19601f82011682018060405250810190613c4e9190614848565b505050505050505050565b60006120b882613659565b60405180606001604052806003905b604080516080810182526000808252602080830182905292820181905260608201528252600019909201910181613c735790505090565b60008060408385031215613cbd57600080fd5b50508035926020909101359150565b634e487b7160e01b600052604160045260246000fd5b6040516060810167ffffffffffffffff81118282101715613d0557613d05613ccc565b60405290565b6040516080810167ffffffffffffffff81118282101715613d0557613d05613ccc565b8060020b81146104ec57600080fd5b6001600160801b03811681146104ec57600080fd5b6000610180808385031215613d6657600080fd5b83601f840112613d7557600080fd5b613d7d613ce2565b908301908085831115613d8f57600080fd5b845b83811015613dfe5760808188031215613daa5760008081fd5b613db2613d0b565b8135613dbd81613d2e565b8152602082810135613dce81613d2e565b82820152604083810135613de181613d3d565b908301526060838101359083015290845290920191608001613d91565b5095945050505050565b6001600160a01b03811681146104ec57600080fd5b60008060408385031215613e3057600080fd5b8235613e3b81613e08565b91506020830135613e4b81613e08565b809150509250929050565b600060208284031215613e6857600080fd5b8135613b2681613e08565b805160020b8252602081015160020b60208301526001600160801b036040820151166040830152606081015160608301525050565b8060005b6003811015613ed657613ec0848351613e73565b6080939093019260209190910190600101613eac565b50505050565b61018081016120b88284613ea8565b60008060008060608587031215613f0157600080fd5b8435935060208501359250604085013567ffffffffffffffff80821115613f2757600080fd5b818701915087601f830112613f3b57600080fd5b813581811115613f4a57600080fd5b886020828501011115613f5c57600080fd5b95989497505060200194505050565b600060208284031215613f7d57600080fd5b813560038110613b2657600080fd5b6020808252825182820181905260009190848201906040850190845b81811015613fce5783516001600160e01b03191683529284019291840191600101613fa8565b50909695505050505050565b634e487b7160e01b600052601160045260246000fd5b808201808211156120b8576120b8613fda565b6020808252600f908201526e1b9bdd081a5b9a5d1a585b1a5e9959608a1b604082015260600190565b634e487b7160e01b600052603260045260246000fd5b60208082526010908201526f34b73b30b634b2103837b9b4ba34b7b760811b604082015260600190565b805161407781613e08565b919050565b60006020828403121561408e57600080fd5b8151613b2681613e08565b60006101008083850312156140ad57600080fd5b6040519081019067ffffffffffffffff821181831017156140d0576140d0613ccc565b81604052835181526020840151602082015260408401516040820152606084015160608201526080840151608082015260a0840151915061411082613e08565b8160a082015261412260c0850161406c565b60c082015260e084015160e0820152809250505092915050565b60006020828403121561414e57600080fd5b5051919050565b8051801515811461407757600080fd5b60006020828403121561417757600080fd5b6120b582614155565b634e487b7160e01b600052602160045260246000fd5b600381106141b457634e487b7160e01b600052602160045260246000fd5b9052565b6001600160a01b0384811682528316602082015260608101613a716040830184614196565b600080600080608085870312156141f357600080fd5b84516141fe81613d2e565b602086015190945061420f81613d2e565b6040860151606090960151949790965092505050565b60609390931b6bffffffffffffffffffffffff1916835260e891821b6014840152901b6017820152601a0190565b600080600080600060a0868803121561426b57600080fd5b855161427681613d3d565b809550506020860151935060408601519250606086015161429681613d3d565b60808701519092506142a781613d3d565b809150509295509295909350565b818103818111156120b8576120b8613fda565b80820281158282048414176120b8576120b8613fda565b634e487b7160e01b600052601260045260246000fd5b600082614304576143046142df565b500490565b6001600160a01b0384811682528316602082015260c08101613a716040830184613e73565b805161ffff8116811461407757600080fd5b600080600080600080600060e0888a03121561435b57600080fd5b875161436681613e08565b602089015190975061437781613d2e565b95506143856040890161432e565b94506143936060890161432e565b93506143a16080890161432e565b925060a088015160ff811681146143b757600080fd5b91506143c560c08901614155565b905092959891949750929550565b600281810b9083900b01627fffff8113627fffff19821217156120b8576120b8613fda565b60006020828403121561440a57600080fd5b8151613b2681613d2e565b60008160020b8360020b8061442c5761442c6142df565b627fffff1982146000198214161561444657614446613fda565b90059392505050565b600181815b8085111561448a57816000190482111561447057614470613fda565b8085161561447d57918102915b93841c9390800290614454565b509250929050565b6000826144a1575060016120b8565b816144ae575060006120b8565b81600181146144c457600281146144ce576144ea565b60019150506120b8565b60ff8411156144df576144df613fda565b50506001821b6120b8565b5060208310610133831016604e8410600b841016171561450d575081810a6120b8565b614517838361444f565b806000190482111561452b5761452b613fda565b029392505050565b60006120b58383614492565b6001600160a01b038716815260208101869052604081018590526060810184905260808101839052610220810161457960a0830184613ea8565b979650505050505050565b81810360008312801583831316838312821617156145a4576145a4613fda565b5092915050565b80820260008212600160ff1b841416156145c7576145c7613fda565b81810583148215176120b8576120b8613fda565b80820182811260008312801582168215821617156145fb576145fb613fda565b505092915050565b600080600080600080600080610100898b03121561462057600080fd5b885161462b81613d3d565b80985050602089015180600f0b811461464357600080fd5b80975050604089015195506060890151945060808901518060060b811461466957600080fd5b60a08a015190945061467a81613e08565b60c08a015190935063ffffffff8116811461469457600080fd5b91506146a260e08a01614155565b90509295985092959890939650565b6001600160a01b03878116825286166020820152600285810b604083015284900b606082015260e081016146e86080830185614196565b825160a0830152602083015160c0830152979650505050505050565b60006080828403121561471657600080fd5b61471e613d0b565b825161472981613d2e565b8152602083015161473981613d2e565b6020820152604083015161474c81613d3d565b60408201526060928301519281019290925250919050565b6001600160a01b0388811682528716602082015260408101869052606081018590526080810184905260a0810183905261014081016147a660c0830184613e73565b98975050505050505050565b60008260020b8260020b028060020b91508082146145a4576145a4613fda565b6000600160ff1b82016147e7576147e7613fda565b5060000390565b60008160020b627fffff19810361480757614807613fda565b60000392915050565b60008261481f5761481f6142df565b500690565b6000806040838503121561483757600080fd5b505080516020909101519092909150565b6000806040838503121561485b57600080fd5b825161486681613d3d565b6020840151909250613e4b81613d3d56fe696e697469616c697a654c69717569646974792828696e7432342c696e7432342c75696e743132382c75696e74323536295b335d29757064617465506f736974696f6e732828696e7432342c696e7432342c75696e743132382c75696e74323536295b335d29756e697377617056334d696e7443616c6c6261636b2875696e743235362c75696e743235362c627974657329a264697066735822122046c1ee1801ec5595548f815672b5967c07c8df7498e56ee54481c8ae395ec69b64736f6c63430008170033","linkReferences":{"src/libraries/Conversions.sol":{"Conversions":[{"start":12855,"length":20}]},"src/libraries/Utils.sol":{"Utils":[{"start":7223,"length":20},{"start":7394,"length":20},{"start":7640,"length":20},{"start":13195,"length":20},{"start":13426,"length":20},{"start":13629,"length":20}]}}},"methodIdentifiers":{"getAccumulatedFees()":"5df45a37","getFunctionSelectors()":"fd896f9d","getPositions()":"80275860","getUnderlyingBalances(uint8)":"f4a1a46d","getVaultInfo()":"7f98aa71","initialize(address,address)":"485cc955","initializeLiquidity((int24,int24,uint128,uint256)[3])":"41fc48e3","pool()":"16f0115b","setFees(uint256,uint256)":"0b78f9c0","setParameters(address)":"490377a7","shift()":"12fc41ca","slide()":"982f3bfd","uniswapV3MintCallback(uint256,uint256,bytes)":"d3487997","updatePositions((int24,int24,uint128,uint256)[3])":"b22fdb40"},"id":114}