{"abi":[{"type":"constructor","inputs":[{"name":"_pool","type":"address","internalType":"address"},{"name":"_modelHelper","type":"address","internalType":"address"}],"stateMutability":"nonpayable"},{"type":"function","name":"getUnderlyingBalances","inputs":[{"name":"liquidityType","type":"uint8","internalType":"enum LiquidityType"}],"outputs":[{"name":"","type":"int24","internalType":"int24"},{"name":"","type":"int24","internalType":"int24"},{"name":"","type":"uint256","internalType":"uint256"},{"name":"","type":"uint256","internalType":"uint256"}],"stateMutability":"view"},{"type":"function","name":"getVaultInfo","inputs":[],"outputs":[{"name":"liquidityRatio","type":"uint256","internalType":"uint256"},{"name":"circulatingSupply","type":"uint256","internalType":"uint256"},{"name":"spotPriceX96","type":"uint256","internalType":"uint256"},{"name":"anchorCapacity","type":"uint256","internalType":"uint256"},{"name":"floorCapacity","type":"uint256","internalType":"uint256"},{"name":"token0","type":"address","internalType":"address"},{"name":"token1","type":"address","internalType":"address"},{"name":"newFloor","type":"uint256","internalType":"uint256"}],"stateMutability":"view"},{"type":"function","name":"initialize","inputs":[{"name":"_floorPosition","type":"tuple","internalType":"struct LiquidityPosition","components":[{"name":"lowerTick","type":"int24","internalType":"int24"},{"name":"upperTick","type":"int24","internalType":"int24"},{"name":"liquidity","type":"uint128","internalType":"uint128"},{"name":"price","type":"uint256","internalType":"uint256"}]},{"name":"_anchorPosition","type":"tuple","internalType":"struct LiquidityPosition","components":[{"name":"lowerTick","type":"int24","internalType":"int24"},{"name":"upperTick","type":"int24","internalType":"int24"},{"name":"liquidity","type":"uint128","internalType":"uint128"},{"name":"price","type":"uint256","internalType":"uint256"}]},{"name":"_discoveryPosition","type":"tuple","internalType":"struct LiquidityPosition","components":[{"name":"lowerTick","type":"int24","internalType":"int24"},{"name":"upperTick","type":"int24","internalType":"int24"},{"name":"liquidity","type":"uint128","internalType":"uint128"},{"name":"price","type":"uint256","internalType":"uint256"}]}],"outputs":[],"stateMutability":"nonpayable"},{"type":"function","name":"owner","inputs":[],"outputs":[{"name":"","type":"address","internalType":"address"}],"stateMutability":"view"},{"type":"function","name":"pool","inputs":[],"outputs":[{"name":"","type":"address","internalType":"contract IUniswapV3Pool"}],"stateMutability":"view"},{"type":"function","name":"setDeployer","inputs":[{"name":"_deployerContract","type":"address","internalType":"address"}],"outputs":[],"stateMutability":"nonpayable"},{"type":"function","name":"shift","inputs":[],"outputs":[],"stateMutability":"nonpayable"},{"type":"function","name":"transferOwnership","inputs":[{"name":"newOwner","type":"address","internalType":"address"}],"outputs":[],"stateMutability":"nonpayable"},{"type":"function","name":"uniswapV3MintCallback","inputs":[{"name":"amount0Owed","type":"uint256","internalType":"uint256"},{"name":"amount1Owed","type":"uint256","internalType":"uint256"},{"name":"data","type":"bytes","internalType":"bytes"}],"outputs":[],"stateMutability":"nonpayable"},{"type":"event","name":"FloorUpdated","inputs":[{"name":"floorPrice","type":"uint256","indexed":false,"internalType":"uint256"},{"name":"floorCapacity","type":"uint256","indexed":false,"internalType":"uint256"}],"anonymous":false},{"type":"event","name":"OwnershipTransferred","inputs":[{"name":"user","type":"address","indexed":true,"internalType":"address"},{"name":"newOwner","type":"address","indexed":true,"internalType":"address"}],"anonymous":false},{"type":"error","name":"AboveThreshold","inputs":[]},{"type":"error","name":"AlreadyInitialized","inputs":[]},{"type":"error","name":"InvalidCaller","inputs":[]}],"bytecode":{"object":"0x60806040523480156200001157600080fd5b5060405162003154380380620031548339810160408190526200003491620001e5565b600080546001600160a01b031916339081178255604051909182917f8be0079c531659141344cd1fd0a4f28419497f9722a3daafe3b4186f6b6457e0908290a350600b80546001600160a01b038085166001600160a01b03199283168117909355600a80549185169190921617905560408051630dfe168160e01b8152905160079291630dfe16819160048083019260209291908290030181865afa158015620000e2573d6000803e3d6000fd5b505050506040513d601f19601f820116820180604052508101906200010891906200021d565b81546001600160a01b0319166001600160a01b03918216178255600b546040805163d21220a760e01b81529051919092169163d21220a79160048083019260209291908290030181865afa15801562000165573d6000803e3d6000fd5b505050506040513d601f19601f820116820180604052508101906200018b91906200021d565b60019190910180546001600160a01b0319166001600160a01b039092169190911790555050600b805460ff60a01b191690556000600c5562000242565b80516001600160a01b0381168114620001e057600080fd5b919050565b60008060408385031215620001f957600080fd5b6200020483620001c8565b91506200021460208401620001c8565b90509250929050565b6000602082840312156200023057600080fd5b6200023b82620001c8565b9392505050565b612f0280620002526000396000f3fe608060405234801561001057600080fd5b50600436106100935760003560e01c80638da5cb5b116100665780638da5cb5b146101345780639621473514610147578063d34879971461015a578063f2fde38b1461016d578063f4a1a46d1461018057600080fd5b806312fc41ca1461009857806316f0115b146100a25780637f98aa71146100d2578063856c6db414610121575b600080fd5b6100a06101bb565b005b600b546100b5906001600160a01b031681565b6040516001600160a01b0390911681526020015b60405180910390f35b6100da610519565b60408051988952602089019790975295870194909452606086019290925260808501526001600160a01b0390811660a08501521660c083015260e0820152610100016100c9565b6100a061012f3660046125d2565b61074b565b6000546100b5906001600160a01b031681565b6100a061015536600461262f565b610984565b6100a0610168366004612653565b6109d0565b6100a061017b36600461262f565b610c00565b61019361018e3660046126d3565b610c94565b60408051600295860b81529390940b60208401529282015260608101919091526080016100c9565b600b54600160a01b900460ff1661020b5760405162461bcd60e51b815260206004820152600f60248201526e1b9bdd081a5b9a5d1a585b1a5e9959608a1b60448201526064015b60405180910390fd5b6102136124b7565b6040805160808082018352600154600281810b84526301000000808304820b6020808701919091526001600160801b03600160301b9485900481168789015283546060808901919091529689528751808701895260035480860b8252848104860b828501528690048216818a015260045481890152898301528751958601885260055480850b875292830490930b908501529190910416818401526006549181019190915290820152600b54600954600a5460009283926102e6926001600160a01b039283169230928116911687610d26565b600c8290559092509050806000602090810291909101518051600180549383015160408401516001600160801b0316600160301b02600160301b600160b01b031962ffffff92831663010000000265ffffffffffff1990971692909416919091179490941791909116929092178255606001516002558190602090810291909101518051600380549383015160408401516001600160801b0316600160301b02600160301b600160b01b031962ffffff92831663010000000265ffffffffffff19909716929094169190911794909417919091169290921790915560600151600455806002602090810291909101518051600580549383015160408085015162ffffff94851665ffffffffffff19909716969096176301000000949092169390930217600160301b600160b01b031916600160301b6001600160801b0395861602179055606090910151600655600a54600b5491516335cb761760e21b81526001600160a01b039283166004820152306024820152600154600281810b6044840152601882901c810b606484015260309190911c9094166084820152925460a48401527f104c7a00b280703406a41aa2586077cd2121652b5284bb7ba0aa6f85c633219d926000929091169063d72dd85c9060c401602060405180830381865afa1580156104d8573d6000803e3d6000fd5b505050506040513d601f19601f820116820180604052508101906104fc919061270a565b6040805192835260208301919091520160405180910390a1505050565b60008080808080808080600360405190808252806020026020018201604052801561057757816020015b6040805160808101825260008082526020808301829052928201819052606082015282526000199092019101816105435790505b5060408051608081018252600154600281810b835263010000008204810b6020840152600160301b9091046001600160801b0316928201929092529054606082015281519192509082906000906105d0576105d06126f4565b60209081029190910181019190915260408051608081018252600354600281810b835263010000008204900b93820193909352600160301b9092046001600160801b0316908201526004546060820152815182906001908110610635576106356126f4565b60209081029190910181019190915260408051608081018252600554600281810b835263010000008204810b94830194909452600160301b90046001600160801b0316918101919091526006546060820152825190918391811061069b5761069b6126f4565b6020908102919091010152600a54600b54604051638a3fecc960e01b81526001600160a01b0391821660048201523060248201526007548216604482015260085482166064820152911690638a3fecc99060840160e060405180830381865afa15801561070c573d6000803e3d6000fd5b505050506040513d601f19601f820116820180604052508101906107309190612723565b959f949e50929c50909a509850965090945060009350915050565b600b54600160a01b900460ff16156107755760405162dc149f60e41b815260040160405180910390fd5b6009546001600160a01b031633146107a0576040516348f5c3ed60e01b815260040160405180910390fd5b82516001805460208087015160408089015162ffffff96871665ffffffffffff19958616176301000000938816840217600160301b600160b01b0319908116600160301b6001600160801b039384168102919091179097556060808c01516002558a51600380548d8901518e880151938d16918b1691909117908c1688021784169185168a029190911790558a810151600455895160058054978c0151958c0151918b169790981696909617939098169093029190911790911691169092029190911790558101516006556108736124b7565b8381526020810183905260408082018390528401516001600160801b0316158015906108af57506020810151604001516001600160801b031615155b80156108ca575060408082015101516001600160801b031615155b6109095760405162461bcd60e51b815260206004820152601060248201526f34b73b30b634b2103837b9b4ba34b7b760811b6044820152606401610202565b600a546040516302c8bf6d60e61b81526001600160a01b039091169063b22fdb409061093990849060040161278d565b600060405180830381600087803b15801561095357600080fd5b505af1158015610967573d6000803e3d6000fd5b5050600b805460ff60a01b1916600160a01b179055505050505050565b600b54600160a01b900460ff16156109ae5760405162dc149f60e41b815260040160405180910390fd5b600980546001600160a01b0319166001600160a01b0392909216919091179055565b600b546001600160a01b03163314610a0f5760405162461bcd60e51b8152602060048201526002602482015261636360f01b6044820152606401610202565b6007546040516370a0823160e01b81523060048201526000916001600160a01b0316906370a0823190602401602060405180830381865afa158015610a58573d6000803e3d6000fd5b505050506040513d601f19601f82011682018060405250810190610a7c919061270a565b6008546040516370a0823160e01b81523060048201529192506000916001600160a01b03909116906370a0823190602401602060405180830381865afa158015610aca573d6000803e3d6000fd5b505050506040513d601f19601f82011682018060405250810190610aee919061270a565b9050858210610b74578515610b745760075460405163a9059cbb60e01b8152336004820152602481018890526001600160a01b039091169063a9059cbb906044016020604051808303816000875af1158015610b4e573d6000803e3d6000fd5b505050506040513d601f19601f82011682018060405250810190610b72919061280f565b505b848110610bf8578415610bf85760085460405163a9059cbb60e01b8152336004820152602481018790526001600160a01b039091169063a9059cbb906044016020604051808303816000875af1158015610bd2573d6000803e3d6000fd5b505050506040513d601f19601f82011682018060405250810190610bf6919061280f565b505b505050505050565b6000546001600160a01b03163314610c495760405162461bcd60e51b815260206004820152600c60248201526b15539055551213d49256915160a21b6044820152606401610202565b600080546001600160a01b0319166001600160a01b0383169081178255604051909133917f8be0079c531659141344cd1fd0a4f28419497f9722a3daafe3b4186f6b6457e09190a350565b600a54600b546040516317886cbb60e11b81526000928392839283926001600160a01b0390811692632f10d97692610cd6929091169030908a90600401612862565b608060405180830381865afa158015610cf3573d6000803e3d6000fd5b505050506040513d601f19601f82011682018060405250810190610d179190612887565b93509350935093509193509193565b6000610d306124b7565b6040516387dd9e6760e01b81526001600160a01b0388811660048301528516906387dd9e6790602401602060405180830381865afa158015610d76573d6000803e3d6000fd5b505050506040513d601f19601f82011682018060405250810190610d9a919061270a565b91506000846001600160a01b0316632f10d976893060016040518463ffffffff1660e01b8152600401610dcf93929190612862565b608060405180830381865afa158015610dec573d6000803e3d6000fd5b505050506040513d601f19601f82011682018060405250810190610e109190612887565b93505050506000856001600160a01b0316632f10d9768a3060026040518463ffffffff1660e01b8152600401610e4893929190612862565b608060405180830381865afa158015610e65573d6000803e3d6000fd5b505050506040513d601f19601f82011682018060405250810190610e899190612887565b9350505050670dbd2fc137a30000841015611043576000610eb385610eae84866128e5565b611068565b610ebd83856128e5565b610ec791906128f8565b9050610eda836601c6bf5263400061290b565b8110610ffe5760405163526ed0d160e11b81526001600160a01b038b811660048301528a811660248301526000919089169063a4dda1a290604401602060405180830381865afa158015610f32573d6000803e3d6000fd5b505050506040513d601f19601f82011682018060405250810190610f56919061270a565b90508015610ff857610f7e8b308960016020020151518a60015b602002015160200151611093565b610f968b8a848b610f8f828a6128f8565b888d611174565b6040516302c8bf6d60e61b81529095506001600160a01b0389169063b22fdb4090610fc590889060040161278d565b600060405180830381600087803b158015610fdf57600080fd5b505af1158015610ff3573d6000803e3d6000fd5b505050505b5061103d565b6110078161181b565b6040516020016110179190612946565b60408051601f198184030181529082905262461bcd60e51b825261020291600401612980565b5061105c565b60405163e40aeaf560e01b815260040160405180910390fd5b50509550959350505050565b60006110766012600a612a97565b611080838561290b565b61108a9190612ab9565b90505b92915050565b6040516bffffffffffffffffffffffff193060601b16602082015260e883811b603483015282901b6037820152600090603a0160408051601f1981840301815290829052805160209091012063514ea4bf60e01b82526004820181905291506000906001600160a01b0387169063514ea4bf9060240160a060405180830381865afa158015611126573d6000803e3d6000fd5b505050506040513d601f19601f8201168201806040525081019061114a9190612acd565b5050505090506000816001600160801b03161115610bf85761116f8686868685611947565b610bf8565b61117c6124b7565b6000886001600160a01b0316633850c7bd6040518163ffffffff1660e01b815260040160e060405180830381865afa1580156111bc573d6000803e3d6000fd5b505050506040513d601f19601f820116820180604052508101906111e09190612b41565b505060405163b7df07b360e01b81526001600160a01b03861660048201526012602482015294955060009473__$02d520d13cf184fb066b4c9912635b5d1d$__945063aaf99e1d935073__$00856c2daf1848075e4d6b3791a97a7365$__925063b7df07b39150604401602060405180830381865af4158015611267573d6000803e3d6000fd5b505050506040513d601f19601f8201168201806040525081019061128b919061270a565b6040516001600160e01b031960e084901b168152600481019190915260fa6024820152604401602060405180830381865af41580156112ce573d6000803e3d6000fd5b505050506040513d601f19601f820116820180604052508101906112f2919061270a565b60405163b7df07b360e01b81526001600160a01b03841660048201526012602482015290915060009073__$00856c2daf1848075e4d6b3791a97a7365$__9063b7df07b390604401602060405180830381865af4158015611357573d6000803e3d6000fd5b505050506040513d601f19601f8201168201806040525081019061137b919061270a565b90506000886001600160a01b0316632f10d9768d3060006040518463ffffffff1660e01b81526004016113b093929190612862565b608060405180830381865afa1580156113cd573d6000803e3d6000fd5b505050506040513d601f19601f820116820180604052508101906113f19190612887565b935050505060008660006003811061140b5761140b6126f4565b6020020151604001516001600160801b031611156117c457855151611436908d903090896000610f70565b8b6001600160a01b031663d21220a76040518163ffffffff1660e01b8152600401602060405180830381865afa158015611474573d6000803e3d6000fd5b505050506040513d601f19601f820116820180604052508101906114989190612bd4565b6001600160a01b031663a9059cbb8c6114b18d856128e5565b6040516001600160e01b031960e085901b1681526001600160a01b03909216600483015260248201526044016020604051808303816000875af11580156114fc573d6000803e3d6000fd5b505050506040513d601f19601f82011682018060405250810190611520919061280f565b506001600160a01b038b16636fb086968d3073__$00856c2daf1848075e4d6b3791a97a7365$__63b7df07b36115618c60005b602002015160200151611a73565b6040516001600160e01b031960e084901b1681526001600160a01b03909116600482015260126024820152604401602060405180830381865af41580156115ac573d6000803e3d6000fd5b505050506040513d601f19601f820116820180604052508101906115d0919061270a565b8a516040516001600160e01b031960e087901b1681526115f69493929190600401612bf1565b6080604051808303816000875af1158015611615573d6000803e3d6000fd5b505050506040513d601f19601f820116820180604052508101906116399190612c56565b8552604086015151611651908d903090896002610f70565b6117918c8c61177573__$02d520d13cf184fb066b4c9912635b5d1d$__63aaf99e1d73__$00856c2daf1848075e4d6b3791a97a7365$__63b7df07b36116988e6000611553565b6040516001600160e01b031960e084901b1681526001600160a01b03909116600482015260126024820152604401602060405180830381865af41580156116e3573d6000803e3d6000fd5b505050506040513d601f19601f82011682018060405250810190611707919061270a565b6040516001600160e01b031960e084901b168152600481019190915260326024820152604401602060405180830381865af415801561174a573d6000803e3d6000fd5b505050506040513d601f19601f8201168201806040525081019061176e919061270a565b603c611a7e565b61178086603c611a7e565b61178a8c8e6128e5565b6001611b63565b602080870182905201516117ba908d908d906117b161176e88600361290b565b60006002611b63565b604086015261180c565b60405162461bcd60e51b815260206004820152601c60248201527f7368696674506f736974696f6e733a206e6f206c6971756964697479000000006044820152606401610202565b50505050979650505050505050565b6060816000036118425750506040805180820190915260018152600360fc1b602082015290565b8160005b811561186c578061185681612cb6565b91506118659050600a83612ab9565b9150611846565b60008167ffffffffffffffff811115611887576118876124fd565b6040519080825280601f01601f1916602001820160405280156118b1576020820181803683370190505b509050815b851561193e576118c76001826128f8565b905060006118d6600a88612ab9565b6118e190600a61290b565b6118eb90886128f8565b6118f6906030612ccf565b905060008160f81b905080848481518110611913576119136126f4565b60200101906001600160f81b031916908160001a905350611935600a89612ab9565b975050506118b6565b50949350505050565b60405163a34123a760e01b8152600284810b600483015283900b60248201526001600160801b038216604482015260009081906001600160a01b0388169063a34123a79060640160408051808303816000875af11580156119ac573d6000803e3d6000fd5b505050506040513d601f19601f820116820180604052508101906119d09190612ce8565b6040516309e3d67b60e31b81526001600160a01b038981166004830152600289810b602484015288900b60448301526001600160801b0360648301819052608483015292945090925090881690634f1eb3d89060a40160408051808303816000875af1158015611a44573d6000803e3d6000fd5b505050506040513d601f19601f82011682018060405250810190611a689190612d0c565b505050505050505050565b600061108d82612047565b600081611b5968033dd1780914b9684073__$28bae0af19d0e90d77349cc0e88bc3c39a$__63bc4225aa611aba88670de0b6b3a7640000612d46565b6040516001600160e01b031960e084901b1681526004810191909152670de0b6b3a764000060248201526706f05b59d3b200006044820152606401602060405180830381865af4158015611b12573d6000803e3d6000fd5b505050506040513d601f19601f82011682018060405250810190611b36919061270a565b611b409190612d76565b611b54600286900b658334ae9d7c0a612d46565b612467565b61108a9190612d9d565b6040805160808101825260008082526020820181905291810182905260608101919091528460020b8460020b13611bcc5760405162461bcd60e51b815260206004820152600d60248201526c696e76616c6964207469636b7360981b6044820152606401610202565b6000876001600160a01b0316630dfe16816040518163ffffffff1660e01b8152600401602060405180830381865afa158015611c0c573d6000803e3d6000fd5b505050506040513d601f19601f82011682018060405250810190611c309190612bd4565b6040516370a0823160e01b81523060048201526001600160a01b0391909116906370a0823190602401602060405180830381865afa158015611c76573d6000803e3d6000fd5b505050506040513d601f19601f82011682018060405250810190611c9a919061270a565b90506000886001600160a01b031663d21220a76040518163ffffffff1660e01b8152600401602060405180830381865afa158015611cdc573d6000803e3d6000fd5b505050506040513d601f19601f82011682018060405250810190611d009190612bd4565b6040516370a0823160e01b81523060048201526001600160a01b0391909116906370a0823190602401602060405180830381865afa158015611d46573d6000803e3d6000fd5b505050506040513d601f19601f82011682018060405250810190611d6a919061270a565b905060006002856002811115611d8257611d8261282a565b14611d8d5782611dae565b6064611d9a84601961290b565b611da49190612ab9565b611dae90846128f8565b9050896001600160a01b0316630dfe16816040518163ffffffff1660e01b8152600401602060405180830381865afa158015611dee573d6000803e3d6000fd5b505050506040513d601f19601f82011682018060405250810190611e129190612bd4565b60405163095ea7b360e01b81526001600160a01b038b8116600483015260248201849052919091169063095ea7b3906044016020604051808303816000875af1158015611e63573d6000803e3d6000fd5b505050506040513d601f19601f82011682018060405250810190611e87919061280f565b50896001600160a01b031663d21220a76040518163ffffffff1660e01b8152600401602060405180830381865afa158015611ec6573d6000803e3d6000fd5b505050506040513d601f19601f82011682018060405250810190611eea9190612bd4565b6001600160a01b031663095ea7b38a60008911611f08576001611f0a565b885b6040516001600160e01b031960e085901b1681526001600160a01b03909216600483015260248201526044016020604051808303816000875af1158015611f55573d6000803e3d6000fd5b505050506040513d601f19601f82011682018060405250810190611f79919061280f565b50886001600160a01b031663e452d9448b308b8b8a604051806040016040528089815260200160016002811115611fb257611fb261282a565b8e6002811115611fc457611fc461282a565b14611fd0576001611fd2565b8e5b8152506040518763ffffffff1660e01b8152600401611ff696959493929190612dbd565b6080604051808303816000875af1158015612015573d6000803e3d6000fd5b505050506040513d601f19601f820116820180604052508101906120399190612c56565b9a9950505050505050505050565b60008060008360020b1261205e578260020b61206b565b8260020b61206b90612e10565b905061207a620d89e719612e2c565b60020b8111156120b05760405162461bcd60e51b81526020600482015260016024820152601560fa1b6044820152606401610202565b6000816001166000036120c757600160801b6120d9565b6ffffcb933bd6fad37aa2d162d1a5940015b70ffffffffffffffffffffffffffffffffff1690506002821615612118576080612113826ffff97272373d413259a46990580e213a61290b565b901c90505b600482161561214257608061213d826ffff2e50f5f656932ef12357cf3c7fdcc61290b565b901c90505b600882161561216c576080612167826fffe5caca7e10e4e61c3624eaa0941cd061290b565b901c90505b6010821615612196576080612191826fffcb9843d60f6159c9db58835c92664461290b565b901c90505b60208216156121c05760806121bb826fff973b41fa98c081472e6896dfb254c061290b565b901c90505b60408216156121ea5760806121e5826fff2ea16466c96a3843ec78b326b5286161290b565b901c90505b608082161561221457608061220f826ffe5dee046a99a2a811c461f1969c305361290b565b901c90505b61010082161561223f57608061223a826ffcbe86c7900a88aedcffc83b479aa3a461290b565b901c90505b61020082161561226a576080612265826ff987a7253ac413176f2b074cf7815e5461290b565b901c90505b610400821615612295576080612290826ff3392b0822b70005940c7a398e4b70f361290b565b901c90505b6108008216156122c05760806122bb826fe7159475a2c29b7443b29c7fa6e889d961290b565b901c90505b6110008216156122eb5760806122e6826fd097f3bdfd2022b8845ad8f792aa582561290b565b901c90505b612000821615612316576080612311826fa9f746462d870fdf8a65dc1f90e061e561290b565b901c90505b61400082161561234157608061233c826f70d869a156d2a1b890bb3df62baf32f761290b565b901c90505b61800082161561236c576080612367826f31be135f97d08fd981231505542fcfa661290b565b901c90505b62010000821615612398576080612393826f09aa508b5b7a84e1c677de54f3e99bc961290b565b901c90505b620200008216156123c35760806123be826e5d6af8dedb81196699c329225ee60461290b565b901c90505b620400008216156123ed5760806123e8826d2216e584f5fa1ea926041bedfe9861290b565b901c90505b62080000821615612415576080612410826b048a170391f7dc42444e8fa261290b565b901c90505b60008460020b13156124305761242d81600019612ab9565b90505b61243f64010000000082612e4e565b1561244b57600161244e565b60005b61245f9060ff16602083901c6128e5565b949350505050565b60006113886127108361247a8683612d46565b6124849190612e62565b61248e9190612e90565b136124a25761249d8284612e62565b61108a565b6124ac8284612e62565b61108a906001612ea4565b60405180606001604052806003905b6040805160808101825260008082526020808301829052928201819052606082015282526000199092019101816124c65790505090565b634e487b7160e01b600052604160045260246000fd5b6040516080810167ffffffffffffffff8111828210171561254457634e487b7160e01b600052604160045260246000fd5b60405290565b8060020b811461255957600080fd5b50565b6001600160801b038116811461255957600080fd5b60006080828403121561258357600080fd5b61258b612513565b905081356125988161254a565b815260208201356125a88161254a565b602082015260408201356125bb8161255c565b806040830152506060820135606082015292915050565b600080600061018084860312156125e857600080fd5b6125f28585612571565b92506126018560808601612571565b9150612611856101008601612571565b90509250925092565b6001600160a01b038116811461255957600080fd5b60006020828403121561264157600080fd5b813561264c8161261a565b9392505050565b6000806000806060858703121561266957600080fd5b8435935060208501359250604085013567ffffffffffffffff8082111561268f57600080fd5b818701915087601f8301126126a357600080fd5b8135818111156126b257600080fd5b8860208285010111156126c457600080fd5b95989497505060200194505050565b6000602082840312156126e557600080fd5b81356003811061264c57600080fd5b634e487b7160e01b600052603260045260246000fd5b60006020828403121561271c57600080fd5b5051919050565b600080600080600080600060e0888a03121561273e57600080fd5b875196506020880151955060408801519450606088015193506080880151925060a088015161276c8161261a565b60c089015190925061277d8161261a565b8091505092959891949750929550565b6101808101818360005b60038110156127f1576127db838351805160020b8252602081015160020b60208301526001600160801b036040820151166040830152606081015160608301525050565b6080929092019160209190910190600101612797565b50505092915050565b8051801515811461280a57600080fd5b919050565b60006020828403121561282157600080fd5b61108a826127fa565b634e487b7160e01b600052602160045260246000fd5b6003811061285e57634e487b7160e01b600052602160045260246000fd5b9052565b6001600160a01b038481168252831660208201526060810161245f6040830184612840565b6000806000806080858703121561289d57600080fd5b84516128a88161254a565b60208601519094506128b98161254a565b6040860151606090960151949790965092505050565b634e487b7160e01b600052601160045260246000fd5b8082018082111561108d5761108d6128cf565b8181038181111561108d5761108d6128cf565b808202811582820484141761108d5761108d6128cf565b60005b8381101561293d578181015183820152602001612925565b50506000910152565b7102737ba3434b733903a379039b5b4b6901d160751b815260008251612973816012850160208701612922565b9190910160120192915050565b602081526000825180602084015261299f816040850160208701612922565b601f01601f19169190910160400192915050565b600181815b808511156129ee5781600019048211156129d4576129d46128cf565b808516156129e157918102915b93841c93908002906129b8565b509250929050565b600082612a055750600161108d565b81612a125750600061108d565b8160018114612a285760028114612a3257612a4e565b600191505061108d565b60ff841115612a4357612a436128cf565b50506001821b61108d565b5060208310610133831016604e8410600b8410161715612a71575081810a61108d565b612a7b83836129b3565b8060001904821115612a8f57612a8f6128cf565b029392505050565b600061108a83836129f6565b634e487b7160e01b600052601260045260246000fd5b600082612ac857612ac8612aa3565b500490565b600080600080600060a08688031215612ae557600080fd5b8551612af08161255c565b8095505060208601519350604086015192506060860151612b108161255c565b6080870151909250612b218161255c565b809150509295509295909350565b805161ffff8116811461280a57600080fd5b600080600080600080600060e0888a031215612b5c57600080fd5b8751612b678161261a565b6020890151909750612b788161254a565b9550612b8660408901612b2f565b9450612b9460608901612b2f565b9350612ba260808901612b2f565b925060a088015160ff81168114612bb857600080fd5b9150612bc660c089016127fa565b905092959891949750929550565b600060208284031215612be657600080fd5b815161264c8161261a565b6001600160a01b038581168252841660208201526040810183905260e08101612c4d6060830184805160020b8252602081015160020b60208301526001600160801b036040820151166040830152606081015160608301525050565b95945050505050565b600060808284031215612c6857600080fd5b612c70612513565b8251612c7b8161254a565b81526020830151612c8b8161254a565b60208201526040830151612c9e8161255c565b60408201526060928301519281019290925250919050565b600060018201612cc857612cc86128cf565b5060010190565b60ff818116838216019081111561108d5761108d6128cf565b60008060408385031215612cfb57600080fd5b505080516020909101519092909150565b60008060408385031215612d1f57600080fd5b8251612d2a8161255c565b6020840151909250612d3b8161255c565b809150509250929050565b80820260008212600160ff1b84141615612d6257612d626128cf565b818105831482151761108d5761108d6128cf565b8181036000831280158383131683831282161715612d9657612d966128cf565b5092915050565b60008260020b8260020b028060020b9150808214612d9657612d966128cf565b6001600160a01b03878116825286166020820152600285810b604083015284900b606082015260e08101612df46080830185612840565b825160a0830152602083015160c0830152979650505050505050565b6000600160ff1b8201612e2557612e256128cf565b5060000390565b60008160020b627fffff198103612e4557612e456128cf565b60000392915050565b600082612e5d57612e5d612aa3565b500690565b600082612e7157612e71612aa3565b600160ff1b821460001984141615612e8b57612e8b6128cf565b500590565b600082612e9f57612e9f612aa3565b500790565b8082018281126000831280158216821582161715612ec457612ec46128cf565b50509291505056fea2646970667358221220f4f47064bab23ccc2c9f7f10998022cd39feefc3a5cd368f82365c2aed5ad4da64736f6c63430008170033","linkReferences":{"src/libraries/Conversions.sol":{"Conversions":[{"start":5245,"length":20},{"start":5487,"length":20},{"start":6022,"length":20},{"start":6343,"length":20}]},"src/libraries/Logarithm.sol":{"Logarithm":[{"start":7394,"length":20}]},"src/libraries/Utils.sol":{"Utils":[{"start":5215,"length":20},{"start":6317,"length":20}]}}},"methodIdentifiers":{"getUnderlyingBalances(uint8)":"f4a1a46d","getVaultInfo()":"7f98aa71","initialize((int24,int24,uint128,uint256),(int24,int24,uint128,uint256),(int24,int24,uint128,uint256))":"856c6db4","owner()":"8da5cb5b","pool()":"16f0115b","setDeployer(address)":"96214735","shift()":"12fc41ca","transferOwnership(address)":"f2fde38b","uniswapV3MintCallback(uint256,uint256,bytes)":"d3487997"},"id":38}