{"abi":[{"type":"constructor","inputs":[{"name":"_owner","type":"address","internalType":"address"},{"name":"_amphor","type":"address","internalType":"address"}],"stateMutability":"nonpayable"},{"type":"function","name":"MAX_WITHDRAWAL_AMOUNT","inputs":[],"outputs":[{"name":"","type":"uint256","internalType":"uint256"}],"stateMutability":"view"},{"type":"function","name":"accumulatedRewards","inputs":[],"outputs":[{"name":"","type":"uint256","internalType":"uint256"}],"stateMutability":"view"},{"type":"function","name":"amphor","inputs":[],"outputs":[{"name":"","type":"address","internalType":"contract IERC20"}],"stateMutability":"view"},{"type":"function","name":"balanceOf","inputs":[{"name":"account","type":"address","internalType":"address"}],"outputs":[{"name":"","type":"uint256","internalType":"uint256"}],"stateMutability":"view"},{"type":"function","name":"deployer","inputs":[],"outputs":[{"name":"","type":"address","internalType":"address"}],"stateMutability":"view"},{"type":"function","name":"earned","inputs":[{"name":"account","type":"address","internalType":"address"}],"outputs":[{"name":"","type":"uint256","internalType":"uint256"}],"stateMutability":"view"},{"type":"function","name":"earnedOnStake","inputs":[{"name":"account","type":"address","internalType":"address"},{"name":"index","type":"uint256","internalType":"uint256"}],"outputs":[{"name":"","type":"uint256","internalType":"uint256"}],"stateMutability":"view"},{"type":"function","name":"getAllStakes","inputs":[{"name":"user","type":"address","internalType":"address"}],"outputs":[{"name":"","type":"tuple[]","internalType":"struct StakingRewards.Stake[]","components":[{"name":"amount","type":"uint256","internalType":"uint256"},{"name":"lockPeriod","type":"uint256","internalType":"uint256"},{"name":"multiplier","type":"uint256","internalType":"uint256"},{"name":"lockEnd","type":"uint256","internalType":"uint256"},{"name":"totalEarned","type":"uint256","internalType":"uint256"},{"name":"stakeTime","type":"uint256","internalType":"uint256"}]}],"stateMutability":"view"},{"type":"function","name":"getReward","inputs":[],"outputs":[],"stateMutability":"nonpayable"},{"type":"function","name":"importStakes","inputs":[{"name":"stakerAddresses","type":"address[]","internalType":"address[]"},{"name":"stakeAmounts","type":"uint256[][]","internalType":"uint256[][]"},{"name":"lockPeriodsArrays","type":"uint256[][]","internalType":"uint256[][]"},{"name":"totalEarnedPerStakeArrays","type":"uint256[][]","internalType":"uint256[][]"},{"name":"totalRewardPaidPerStaker","type":"uint256[]","internalType":"uint256[]"}],"outputs":[],"stateMutability":"nonpayable"},{"type":"function","name":"importedStakes","inputs":[],"outputs":[{"name":"","type":"bool","internalType":"bool"}],"stateMutability":"view"},{"type":"function","name":"isStaker","inputs":[{"name":"","type":"address","internalType":"address"}],"outputs":[{"name":"","type":"bool","internalType":"bool"}],"stateMutability":"view"},{"type":"function","name":"lastUpdateTime","inputs":[],"outputs":[{"name":"","type":"uint256","internalType":"uint256"}],"stateMutability":"view"},{"type":"function","name":"lastWithdrawalTime","inputs":[{"name":"","type":"address","internalType":"address"}],"outputs":[{"name":"","type":"uint256","internalType":"uint256"}],"stateMutability":"view"},{"type":"function","name":"lockMultipliers","inputs":[{"name":"","type":"uint256","internalType":"uint256"}],"outputs":[{"name":"","type":"uint256","internalType":"uint256"}],"stateMutability":"view"},{"type":"function","name":"lockPeriods","inputs":[{"name":"","type":"uint256","internalType":"uint256"}],"outputs":[{"name":"","type":"uint256","internalType":"uint256"}],"stateMutability":"view"},{"type":"function","name":"notifyRewardAmount","inputs":[{"name":"_amount","type":"uint256","internalType":"uint256"}],"outputs":[],"stateMutability":"nonpayable"},{"type":"function","name":"owner","inputs":[],"outputs":[{"name":"","type":"address","internalType":"address"}],"stateMutability":"view"},{"type":"function","name":"recoverERC20","inputs":[{"name":"tokenAddress","type":"address","internalType":"address"},{"name":"tokenAmount","type":"uint256","internalType":"uint256"}],"outputs":[],"stateMutability":"nonpayable"},{"type":"function","name":"recoveramphorToken","inputs":[],"outputs":[],"stateMutability":"nonpayable"},{"type":"function","name":"renounceOwnership","inputs":[],"outputs":[],"stateMutability":"nonpayable"},{"type":"function","name":"rewardPaid","inputs":[{"name":"","type":"address","internalType":"address"}],"outputs":[{"name":"","type":"uint256","internalType":"uint256"}],"stateMutability":"view"},{"type":"function","name":"rewardPerToken","inputs":[],"outputs":[{"name":"","type":"uint256","internalType":"uint256"}],"stateMutability":"view"},{"type":"function","name":"rewardPerTokenStored","inputs":[],"outputs":[{"name":"","type":"uint256","internalType":"uint256"}],"stateMutability":"view"},{"type":"function","name":"rewardRatePerSecond","inputs":[],"outputs":[{"name":"","type":"uint256","internalType":"uint256"}],"stateMutability":"view"},{"type":"function","name":"rewards","inputs":[{"name":"","type":"address","internalType":"address"}],"outputs":[{"name":"","type":"uint256","internalType":"uint256"}],"stateMutability":"view"},{"type":"function","name":"rewardsDistribution","inputs":[],"outputs":[{"name":"","type":"address","internalType":"address"}],"stateMutability":"view"},{"type":"function","name":"setMaxWithdrawalAmount","inputs":[{"name":"amount","type":"uint256","internalType":"uint256"}],"outputs":[],"stateMutability":"nonpayable"},{"type":"function","name":"setRewardsDistribution","inputs":[{"name":"_rewardsDistribution","type":"address","internalType":"address"}],"outputs":[],"stateMutability":"nonpayable"},{"type":"function","name":"stake","inputs":[{"name":"amount","type":"uint256","internalType":"uint256"},{"name":"lockPeriod","type":"uint256","internalType":"uint256"}],"outputs":[],"stateMutability":"nonpayable"},{"type":"function","name":"stake","inputs":[{"name":"amount","type":"uint256","internalType":"uint256"}],"outputs":[],"stateMutability":"nonpayable"},{"type":"function","name":"stakers","inputs":[{"name":"","type":"uint256","internalType":"uint256"}],"outputs":[{"name":"","type":"address","internalType":"address"}],"stateMutability":"view"},{"type":"function","name":"stakes","inputs":[{"name":"","type":"address","internalType":"address"},{"name":"","type":"uint256","internalType":"uint256"}],"outputs":[{"name":"amount","type":"uint256","internalType":"uint256"},{"name":"lockPeriod","type":"uint256","internalType":"uint256"},{"name":"multiplier","type":"uint256","internalType":"uint256"},{"name":"lockEnd","type":"uint256","internalType":"uint256"},{"name":"totalEarned","type":"uint256","internalType":"uint256"},{"name":"stakeTime","type":"uint256","internalType":"uint256"}],"stateMutability":"view"},{"type":"function","name":"stakesCount","inputs":[{"name":"user","type":"address","internalType":"address"}],"outputs":[{"name":"","type":"uint256","internalType":"uint256"}],"stateMutability":"view"},{"type":"function","name":"stakingToken","inputs":[],"outputs":[{"name":"","type":"address","internalType":"contract IERC20"}],"stateMutability":"view"},{"type":"function","name":"totalStakers","inputs":[],"outputs":[{"name":"","type":"uint256","internalType":"uint256"}],"stateMutability":"view"},{"type":"function","name":"totalSupply","inputs":[],"outputs":[{"name":"","type":"uint256","internalType":"uint256"}],"stateMutability":"view"},{"type":"function","name":"transferOwnership","inputs":[{"name":"newOwner","type":"address","internalType":"address"}],"outputs":[],"stateMutability":"nonpayable"},{"type":"function","name":"userRewardPerTokenPaid","inputs":[{"name":"","type":"address","internalType":"address"}],"outputs":[{"name":"","type":"uint256","internalType":"uint256"}],"stateMutability":"view"},{"type":"function","name":"weightedTotalSupply","inputs":[],"outputs":[{"name":"","type":"uint256","internalType":"uint256"}],"stateMutability":"view"},{"type":"function","name":"withdraw","inputs":[{"name":"stakeIndex","type":"uint256","internalType":"uint256"}],"outputs":[],"stateMutability":"nonpayable"},{"type":"event","name":"OwnershipTransferred","inputs":[{"name":"previousOwner","type":"address","indexed":true,"internalType":"address"},{"name":"newOwner","type":"address","indexed":true,"internalType":"address"}],"anonymous":false},{"type":"event","name":"RewardAdded","inputs":[{"name":"reward","type":"uint256","indexed":false,"internalType":"uint256"}],"anonymous":false},{"type":"event","name":"RewardPaid","inputs":[{"name":"user","type":"address","indexed":true,"internalType":"address"},{"name":"reward","type":"uint256","indexed":false,"internalType":"uint256"}],"anonymous":false},{"type":"event","name":"Staked","inputs":[{"name":"user","type":"address","indexed":true,"internalType":"address"},{"name":"amount","type":"uint256","indexed":false,"internalType":"uint256"},{"name":"lockPeriod","type":"uint256","indexed":false,"internalType":"uint256"}],"anonymous":false},{"type":"event","name":"TokensRecovered","inputs":[{"name":"token","type":"address","indexed":false,"internalType":"address"},{"name":"amount","type":"uint256","indexed":false,"internalType":"uint256"}],"anonymous":false},{"type":"event","name":"Withdrawn","inputs":[{"name":"user","type":"address","indexed":true,"internalType":"address"},{"name":"amount","type":"uint256","indexed":false,"internalType":"uint256"}],"anonymous":false},{"type":"error","name":"AddressEmptyCode","inputs":[{"name":"target","type":"address","internalType":"address"}]},{"type":"error","name":"AddressInsufficientBalance","inputs":[{"name":"account","type":"address","internalType":"address"}]},{"type":"error","name":"FailedInnerCall","inputs":[]},{"type":"error","name":"OwnableInvalidOwner","inputs":[{"name":"owner","type":"address","internalType":"address"}]},{"type":"error","name":"OwnableUnauthorizedAccount","inputs":[{"name":"account","type":"address","internalType":"address"}]},{"type":"error","name":"ReentrancyGuardReentrantCall","inputs":[]},{"type":"error","name":"SafeERC20FailedOperation","inputs":[{"name":"token","type":"address","internalType":"address"}]}],"bytecode":{"object":"0x60806040526b409f9cbc7c4a04c2200000006007553480156200002157600080fd5b506040516200263e3803806200263e833981016040819052620000449162000269565b600080546001600160a01b0319166001600160a01b0383811691909117909155829081166200008d57604051631e4fbdf760e01b81526000600482015260240160405180910390fd5b6200009881620001fa565b5060016005819055600680546001600160a01b039093166001600160a01b03199384161781556018805490931633179092557ff334b6e428d10075a86b988091978cd863ece9ba03a71184bdbfb81cad5c746c81905560027fd2d295ba115b3f8d1b6f781a2c75c15b381279b9d9208b66f75db1cf1753dde981905560037f16a0eaeacf1026055e7ed13c2129d2ab9348e98e971d2e42711ac3850c725c098190557f4327fba6f7c522f39c4a2d2b2677265917f8f6da3734897a0f697531aca0f68b84905560116020527f17bc176d2408558f6e4111feebc3cab4e16b63e967be91cde721f4c8a488b552929092557f08037d7b151cc412d25674a4e66b334d9ae9d2e5517a7feaae5cdb828bf1c628557f9bfbaa59f8e10e7868f8b402de9d605a390c45ddaebd8c9de3c6f31e733c87ff5560008190527ffb9ce45064c7e7d9bf9deb4750ba7c94ab3d6e7418c5d76bf69966d39a9d42f65550620002a1565b600380546001600160a01b038381166001600160a01b0319831681179093556040519116919082907f8be0079c531659141344cd1fd0a4f28419497f9722a3daafe3b4186f6b6457e090600090a35050565b80516001600160a01b03811681146200026457600080fd5b919050565b600080604083850312156200027d57600080fd5b62000288836200024c565b915062000298602084016200024c565b90509250929050565b61238d80620002b16000396000f3fe608060405234801561001057600080fd5b50600436106102525760003560e01c8063715018a611610146578063a694fc3a116100c3578063d5f3948811610087578063d5f3948814610562578063dd6b21be14610575578063df136d6514610595578063e6b40c421461059e578063f2fde38b146105be578063fd5e6dd1146105d157600080fd5b8063a694fc3a14610522578063b1a7143d14610535578063b9c5a4b41461053d578063c8f33c9114610551578063cd3daf9d1461055a57600080fd5b80638980f11f1161010a5780638980f11f146104c25780638b876347146104d55780638da5cb5b146104f557806395aafd33146105065780639c81ff6b1461051957600080fd5b8063715018a61461048357806372f702f31461048b5780637b0472f01461049e57806386989038146104b157806388c58cf4146104ba57600080fd5b80633c6b16ab116101d45780634de5120e116101985780634de5120e146103be578063584b62a1146103de5780635d773b2c1461041e5780636f1e85331461042757806370a082311461045a57600080fd5b80633c6b16ab1461035d5780633d18b912146103705780633fc6df6e1461037857806347cbeb171461038b5780634c8f2a781461039e57600080fd5b806318160ddd1161021b57806318160ddd146102ef57806319762143146102f757806325303a731461030c5780632e1a7d4d1461031f57806336aebde61461033257600080fd5b80628cc26214610257578063042389941461027d578063058c8c2e1461029d5780630700037d146102a65780630e36e355146102c6575b600080fd5b61026a610265366004611f44565b6105e4565b6040519081526020015b60405180910390f35b61029061028b366004611f44565b610652565b6040516102749190611f5f565b61026a60075481565b61026a6102b4366004611f44565b600e6020526000908152604090205481565b61026a6102d4366004611f44565b6001600160a01b03166000908152600f602052604090205490565b60125461026a565b61030a610305366004611f44565b610703565b005b61030a61031a366004611fd7565b61072d565b61030a61032d366004611fd7565b61077a565b600654610345906001600160a01b031681565b6040516001600160a01b039091168152602001610274565b61030a61036b366004611fd7565b610b0c565b61030a610c82565b600454610345906001600160a01b031681565b61026a610399366004611ff0565b610f03565b61026a6103ac366004611fd7565b60106020526000908152604090205481565b61026a6103cc366004611f44565b60156020526000908152604090205481565b6103f16103ec366004611ff0565b611015565b604080519687526020870195909552938501929092526060840152608083015260a082015260c001610274565b61026a60085481565b61044a610435366004611f44565b60166020526000908152604090205460ff1681565b6040519015158152602001610274565b61026a610468366004611f44565b6001600160a01b031660009081526014602052604090205490565b61030a611069565b600054610345906001600160a01b031681565b61030a6104ac36600461201a565b61107d565b61026a60135481565b61030a6113a9565b61030a6104d0366004611ff0565b6114c8565b61026a6104e3366004611f44565b600d6020526000908152604090205481565b6003546001600160a01b0316610345565b61030a610514366004612088565b611573565b61026a60095481565b61030a610530366004611fd7565b6119e1565b61026a611a37565b60185461044a90600160a01b900460ff1681565b61026a600a5481565b61026a611b44565b601854610345906001600160a01b031681565b61026a610583366004611fd7565b60116020526000908152604090205481565b61026a600b5481565b61026a6105ac366004611f44565b60176020526000908152604090205481565b61030a6105cc366004611f44565b611b69565b6103456105df366004611fd7565b611ba4565b600080805b6001600160a01b0384166000908152600f6020526040902054811015610627576106138482610f03565b61061d908361218f565b91506001016105e9565b506001600160a01b03831660009081526017602052604090205461064b90826121a2565b9392505050565b6001600160a01b0381166000908152600f60209081526040808320805482518185028101850190935280835260609492939192909184015b828210156106f857838290600052602060002090600602016040518060c001604052908160008201548152602001600182015481526020016002820154815260200160038201548152602001600482015481526020016005820154815250508152602001906001019061068a565b505050509050919050565b61070b611bce565b600480546001600160a01b0319166001600160a01b0392909216919091179055565b6003546001600160a01b031633148061075057506018546001600160a01b031633145b6107755760405162461bcd60e51b815260040161076c906121b5565b60405180910390fd5b600755565b33610783611b44565b600b5542600a556001600160a01b0381161561084a5760005b6001600160a01b0382166000908152600f60205260409020548110156108145760006107c88383610f03565b6001600160a01b0384166000908152600f6020526040902080549192508291849081106107f7576107f76121f8565b60009182526020909120600460069092020101555060010161079c565b5061081e816105e4565b6001600160a01b0382166000908152600e6020908152604080832093909355600b54600d909152919020555b336000908152600f6020526040902054821061089e5760405162461bcd60e51b8152602060048201526013602482015272092dcecc2d8d2c840e6e8c2d6ca40d2dcc8caf606b1b604482015260640161076c565b336000908152600f602052604081208054849081106108bf576108bf6121f8565b90600052602060002090600602019050600081600001541161091a5760405162461bcd60e51b81526020600482015260146024820152734e6f207374616b6520746f20776974686472617760601b604482015260640161076c565b80600301544210156109605760405162461bcd60e51b815260206004820152600f60248201526e14dd185ad9481a5cc81b1bd8dad959608a1b604482015260640161076c565b8054601280546000906109749084906121a2565b90915550508054336000908152601460205260408120805490919061099a9084906121a2565b909155505080546109aa90611bfb565b805460405190815233907f7084f5476618d8e60b11ef0d7d3f06914655adb8793e28ff7f018d4c76d505d59060200160405180910390a2336000908152600f6020526040902080546109fe906001906121a2565b81548110610a0e57610a0e6121f8565b9060005260206000209060060201600f6000336001600160a01b03166001600160a01b031681526020019081526020016000208481548110610a5257610a526121f8565b600091825260208083208454600690930201918255600180850154908301556002808501549083015560038085015490830155600480850154908301556005938401549390910192909255338152600f90915260409020805480610ab857610ab861220e565b6000828152602081206006600019909301928302018181556001810182905560028101829055600381018290556004810182905560050181905591556013805491610b0283612224565b9190505550505050565b6000610b16611b44565b600b5542600a556001600160a01b03811615610bdd5760005b6001600160a01b0382166000908152600f6020526040902054811015610ba7576000610b5b8383610f03565b6001600160a01b0384166000908152600f602052604090208054919250829184908110610b8a57610b8a6121f8565b600091825260209091206004600690920201015550600101610b2f565b50610bb1816105e4565b6001600160a01b0382166000908152600e6020908152604080832093909355600b54600d909152919020555b6000610be7611a37565b905080600003610c0657600954610bfe9084611c4d565b600955610c2e565b610c2581610c1f85600954611c4d90919063ffffffff16565b90611c6b565b60085560006009555b42600a55600654610c4a906001600160a01b0316333086611c77565b6040518381527fde88a922e0d3b88b24e9623efeb464919c6bf9f66857a65e2bfcf2ce87a9433d9060200160405180910390a1505050565b33610c8b611b44565b600b5542600a556001600160a01b03811615610d525760005b6001600160a01b0382166000908152600f6020526040902054811015610d1c576000610cd08383610f03565b6001600160a01b0384166000908152600f602052604090208054919250829184908110610cff57610cff6121f8565b600091825260209091206004600690920201015550600101610ca4565b50610d26816105e4565b6001600160a01b0382166000908152600e6020908152604080832093909355600b54600d909152919020555b6000610d5d336105e4565b905060008111610da55760405162461bcd60e51b81526020600482015260136024820152724e6f207265776172647320746f20636c61696d60681b604482015260640161076c565b33600090815260156020526040812054429190610dc5906201518061218f565b336000908152601560205260409020549091501580610de357508082115b610e3e5760405162461bcd60e51b815260206004820152602660248201527f5769746864726177616c2063616e206f6e6c7920626520646f6e65206f6e636560448201526520612064617960d01b606482015260840161076c565b6007548390811115610e4f57506007545b336000908152600e602052604081208054839290610e6e9084906121a2565b909155505033600090815260176020526040902054610e8d9082611c4d565b336000818152601760209081526040808320949094556015905291909120849055600654610ec7916001600160a01b039091169083611ce4565b60405181815233907fe2403640ba68fed3a2f88b7557551d1993f84b99bb10ff833f0cf8db0c5e04869060200160405180910390a25050505050565b6001600160a01b0382166000908152600f60205260408120548210610f6a5760405162461bcd60e51b815260206004820152601960248201527f5374616b6520696e646578206f7574206f6620626f756e647300000000000000604482015260640161076c565b6001600160a01b0383166000908152600f60205260408120805484908110610f9457610f946121f8565b90600052602060002090600602019050600080610fbe836005015442611d1a90919063ffffffff16565b9050610ff7670de0b6b3a7640000610c1f8560020154610ff1600854610ff1878a60000154611d3690919063ffffffff16565b90611d36565b9150818360040154611009919061218f565b93505050505b92915050565b600f602052816000526040600020818154811061103157600080fd5b600091825260209091206006909102018054600182015460028301546003840154600485015460059095015493965091945092909186565b611071611bce565b61107b6000611d6c565b565b33611086611b44565b600b5542600a556001600160a01b0381161561114d5760005b6001600160a01b0382166000908152600f60205260409020548110156111175760006110cb8383610f03565b6001600160a01b0384166000908152600f6020526040902080549192508291849081106110fa576110fa6121f8565b60009182526020909120600460069092020101555060010161109f565b50611121816105e4565b6001600160a01b0382166000908152600e6020908152604080832093909355600b54600d909152919020555b6000831161118e5760405162461bcd60e51b815260206004820152600e60248201526d043616e6e6f74207374616b6520360941b604482015260640161076c565b6000828152601060205260409020546111df5760405162461bcd60e51b8152602060048201526013602482015272125b9d985b1a59081b1bd8dac81c195c9a5bd9606a1b604482015260640161076c565b60008281526010602090815260408083205483526011825280832054338452600f835292819020815160c081018352878152928301869052908201839052906060810161122c864261218f565b8152600060208083018290524260409384015284546001818101875595835281832085516006909202019081559084015194810194909455908201516002840155606082015160038401556080820151600484015560a090910151600590920191909155601280548692906112a290849061218f565b909155505033600090815260146020526040812080548692906112c690849061218f565b9091555050336000908152601560209081526040808320839055601690915290205460ff1661134a57600c805460018181019092557fdf6966c971051c3d54ec59162606531493a51404a002842f56009d7e5cf4a8c70180546001600160a01b031916339081179091556000908152601660205260409020805460ff191690911790555b611353846119e1565b601380549060006113638361223b565b9091555050604080518581526020810185905233917f1449c6dd7851abc30abf37f57715f492010519147cc2652fbc38202c18a6ee90910160405180910390a250505050565b6003546001600160a01b03163314806113cc57506018546001600160a01b031633145b6113e85760405162461bcd60e51b815260040161076c906121b5565b6006546040516370a0823160e01b81523060048201526000916001600160a01b0316906370a0823190602401602060405180830381865afa158015611431573d6000803e3d6000fd5b505050506040513d601f19601f820116820180604052508101906114559190612254565b905061147f61146c6003546001600160a01b031690565b6006546001600160a01b03169083611ce4565b600654604080516001600160a01b039092168252602082018390527f46d2e6e71fc567877b817ff3d940571f989d4ee4d40f2b70806d36e738feef6f910160405180910390a150565b6003546001600160a01b03163314806114eb57506018546001600160a01b031633145b6115075760405162461bcd60e51b815260040161076c906121b5565b61152d61151c6003546001600160a01b031690565b6001600160a01b0384169083611ce4565b604080516001600160a01b0384168152602081018390527f46d2e6e71fc567877b817ff3d940571f989d4ee4d40f2b70806d36e738feef6f910160405180910390a15050565b61157b611bce565b601854600160a01b900460ff16156115d55760405162461bcd60e51b815260206004820152601760248201527f5374616b657320616c726561647920696d706f72746564000000000000000000604482015260640161076c565b88871480156115e357508885145b80156115ee57508883145b80156115f957508881145b61163c5760405162461bcd60e51b8152602060048201526014602482015273088c2e8c240d8cadccee8d040dad2e6dac2e8c6d60631b604482015260640161076c565b6000805b8a8110156119a45760008c8c8381811061165c5761165c6121f8565b90506020020160208101906116719190611f44565b90503660008c8c85818110611688576116886121f8565b905060200281019061169a919061226d565b915091503660008c8c878181106116b3576116b36121f8565b90506020028101906116c5919061226d565b915091503660008c8c898181106116de576116de6121f8565b90506020028101906116f0919061226d565b9092509050848314801561170357508481145b61175e5760405162461bcd60e51b815260206004820152602660248201527f4d69736d61746368656420646174612077697468696e20612073696e676c652060448201526539ba30b5b2b960d11b606482015260840161076c565b8a8a89818110611770576117706121f8565b6001600160a01b038a166000908152601760209081526040909120910292909201359091555061179e611b44565b6001600160a01b0388166000908152600d60205260408120919091555b858110156119905760008787838181106117d7576117d76121f8565b90506020020135905060008686848181106117f4576117f46121f8565b9050602002013590506000858585818110611811576118116121f8565b90506020020135905060106000838152602001908152602001600020546000036118735760405162461bcd60e51b8152602060048201526013602482015272125b9d985b1a59081b1bd8dac81c195c9a5bd9606a1b604482015260640161076c565b600082815260106020908152604080832054835260118252808320546001600160a01b038f168452600f835292819020815160c08101835287815292830186905290820183905290606081016118c9864261218f565b8152602080820186905242604092830152835460018181018655600095865294829020845160069092020190815590830151938101939093558101516002830155606081015160038301556080810151600483015560a001516005909101556012546119359085611c4d565b6012556001600160a01b038c1660009081526014602052604090205461195b9085611c4d565b6001600160a01b038d1660009081526014602052604090205561197e848f61218f565b9d5050600190930192506117bb915050565b505060019096019550611640945050505050565b506018805460ff60a01b1916600160a01b1790556006546119d0906001600160a01b0316333084611c77565b505042600a55505050505050505050565b80600160008282546119f3919061218f565b90915550503360009081526002602052604081208054839290611a1790849061218f565b9091555050600054611a34906001600160a01b0316333084611c77565b50565b600080805b600c54811015611b3e576000600c8281548110611a5b57611a5b6121f8565b60009182526020822001546001600160a01b031691505b6001600160a01b0382166000908152600f6020526040902054811015611b34576001600160a01b0382166000908152600f602052604090208054611b2a91611b239184908110611ac457611ac46121f8565b906000526020600020906006020160020154600f6000866001600160a01b03166001600160a01b031681526020019081526020016000208481548110611b0c57611b0c6121f8565b600091825260209091206006909102015490611d36565b8590611c4d565b9350600101611a72565b5050600101611a3c565b50919050565b600080611b4f611a37565b905080600003611b61575050600b5490565b5050600b5490565b611b71611bce565b6001600160a01b038116611b9b57604051631e4fbdf760e01b81526000600482015260240161076c565b611a3481611d6c565b600c8181548110611bb457600080fd5b6000918252602090912001546001600160a01b0316905081565b6003546001600160a01b0316331461107b5760405163118cdaa760e01b815233600482015260240161076c565b8060016000828254611c0d91906121a2565b90915550503360009081526002602052604081208054839290611c319084906121a2565b9091555050600054611a34906001600160a01b03163383611ce4565b6000611c59828461218f565b90508281101561100f5761100f6122b7565b600061064b82846122cd565b6040516001600160a01b038481166024830152838116604483015260648201839052611cde9186918216906323b872dd906084015b604051602081830303815290604052915060e01b6020820180516001600160e01b038381831617835250505050611dbe565b50505050565b6040516001600160a01b03838116602483015260448201839052611d1591859182169063a9059cbb90606401611cac565b505050565b600082821115611d2c57611d2c6122b7565b61064b82846121a2565b600082600003611d485750600061100f565b611d5282846122ef565b905081611d5f84836122cd565b1461100f5761100f6122b7565b600380546001600160a01b038381166001600160a01b0319831681179093556040519116919082907f8be0079c531659141344cd1fd0a4f28419497f9722a3daafe3b4186f6b6457e090600090a35050565b6000611dd36001600160a01b03841683611e21565b90508051600014158015611df8575080806020019051810190611df69190612306565b155b15611d1557604051635274afe760e01b81526001600160a01b038416600482015260240161076c565b606061064b8383600084600080856001600160a01b03168486604051611e479190612328565b60006040518083038185875af1925050503d8060008114611e84576040519150601f19603f3d011682016040523d82523d6000602084013e611e89565b606091505b5091509150611e99868383611ea3565b9695505050505050565b606082611eb857611eb382611eff565b61064b565b8151158015611ecf57506001600160a01b0384163b155b15611ef857604051639996b31560e01b81526001600160a01b038516600482015260240161076c565b508061064b565b805115611f0f5780518082602001fd5b604051630a12f52160e11b815260040160405180910390fd5b80356001600160a01b0381168114611f3f57600080fd5b919050565b600060208284031215611f5657600080fd5b61064b82611f28565b602080825282518282018190526000919060409081850190868401855b82811015611fca5781518051855286810151878601528581015186860152606080820151908601526080808201519086015260a0908101519085015260c09093019290850190600101611f7c565b5091979650505050505050565b600060208284031215611fe957600080fd5b5035919050565b6000806040838503121561200357600080fd5b61200c83611f28565b946020939093013593505050565b6000806040838503121561202d57600080fd5b50508035926020909101359150565b60008083601f84011261204e57600080fd5b50813567ffffffffffffffff81111561206657600080fd5b6020830191508360208260051b850101111561208157600080fd5b9250929050565b60008060008060008060008060008060a08b8d0312156120a757600080fd5b8a3567ffffffffffffffff808211156120bf57600080fd5b6120cb8e838f0161203c565b909c509a5060208d01359150808211156120e457600080fd5b6120f08e838f0161203c565b909a50985060408d013591508082111561210957600080fd5b6121158e838f0161203c565b909850965060608d013591508082111561212e57600080fd5b61213a8e838f0161203c565b909650945060808d013591508082111561215357600080fd5b506121608d828e0161203c565b915080935050809150509295989b9194979a5092959850565b634e487b7160e01b600052601160045260246000fd5b8082018082111561100f5761100f612179565b8181038181111561100f5761100f612179565b60208082526023908201527f43616c6c6572206973206e6f7420746865206f776e6572206f72206465706c6f6040820152623cb2b960e91b606082015260800190565b634e487b7160e01b600052603260045260246000fd5b634e487b7160e01b600052603160045260246000fd5b60008161223357612233612179565b506000190190565b60006001820161224d5761224d612179565b5060010190565b60006020828403121561226657600080fd5b5051919050565b6000808335601e1984360301811261228457600080fd5b83018035915067ffffffffffffffff82111561229f57600080fd5b6020019150600581901b360382131561208157600080fd5b634e487b7160e01b600052600160045260246000fd5b6000826122ea57634e487b7160e01b600052601260045260246000fd5b500490565b808202811582820484141761100f5761100f612179565b60006020828403121561231857600080fd5b8151801515811461064b57600080fd5b6000825160005b81811015612349576020818601810151858301520161232f565b50600092019182525091905056fea264697066735822122027c459a0992104aa32b0f3ccc4f8bce0e48f88116c3a2c3297c58fb705e3bc6b64736f6c63430008170033","linkReferences":{}},"methodIdentifiers":{"MAX_WITHDRAWAL_AMOUNT()":"058c8c2e","accumulatedRewards()":"9c81ff6b","amphor()":"36aebde6","balanceOf(address)":"70a08231","deployer()":"d5f39488","earned(address)":"008cc262","earnedOnStake(address,uint256)":"47cbeb17","getAllStakes(address)":"04238994","getReward()":"3d18b912","importStakes(address[],uint256[][],uint256[][],uint256[][],uint256[])":"95aafd33","importedStakes()":"b9c5a4b4","isStaker(address)":"6f1e8533","lastUpdateTime()":"c8f33c91","lastWithdrawalTime(address)":"4de5120e","lockMultipliers(uint256)":"dd6b21be","lockPeriods(uint256)":"4c8f2a78","notifyRewardAmount(uint256)":"3c6b16ab","owner()":"8da5cb5b","recoverERC20(address,uint256)":"8980f11f","recoveramphorToken()":"88c58cf4","renounceOwnership()":"715018a6","rewardPaid(address)":"e6b40c42","rewardPerToken()":"cd3daf9d","rewardPerTokenStored()":"df136d65","rewardRatePerSecond()":"5d773b2c","rewards(address)":"0700037d","rewardsDistribution()":"3fc6df6e","setMaxWithdrawalAmount(uint256)":"25303a73","setRewardsDistribution(address)":"19762143","stake(uint256)":"a694fc3a","stake(uint256,uint256)":"7b0472f0","stakers(uint256)":"fd5e6dd1","stakes(address,uint256)":"584b62a1","stakesCount(address)":"0e36e355","stakingToken()":"72f702f3","totalStakers()":"86989038","totalSupply()":"18160ddd","transferOwnership(address)":"f2fde38b","userRewardPerTokenPaid(address)":"8b876347","weightedTotalSupply()":"b1a7143d","withdraw(uint256)":"2e1a7d4d"},"id":111}